{
 "cells": [
  {
   "cell_type": "code",
   "execution_count": 1,
   "id": "pressing-piano",
   "metadata": {},
   "outputs": [],
   "source": [
    "import time\n",
    "from web3 import Web3, HTTPProvider"
   ]
  },
  {
   "cell_type": "code",
   "execution_count": 29,
   "id": "purple-label",
   "metadata": {},
   "outputs": [],
   "source": [
    "contract_address=\"0x3581642e64a092f3bdce0b6469a643e770e25737\"\n",
    "wallet_private_key=\"d5221ee3b3f0595a6eda712d5cbed1181a73d550474b2c9240cb19cab35e6634\"\n",
    "wallet_address=\"0x98aafc122f94f2f7d808d81dc943b18b55eec5a2\"\n",
    "url=\"https://ropsten.infura.io/v3/797f0db7164f4709ab71797981eb76e5\"\n",
    "\n",
    "w3=Web3(HTTPProvider(url))"
   ]
  },
  {
   "cell_type": "code",
   "execution_count": 30,
   "id": "different-empire",
   "metadata": {},
   "outputs": [
    {
     "data": {
      "text/plain": [
       "True"
      ]
     },
     "execution_count": 30,
     "metadata": {},
     "output_type": "execute_result"
    }
   ],
   "source": [
    "w3.isConnected()"
   ]
  },
  {
   "cell_type": "code",
   "execution_count": 43,
   "id": "handled-ambassador",
   "metadata": {},
   "outputs": [],
   "source": [
    "def send_ether_to_contract(amount_in_ether):\n",
    "    amount_in_wei=w3.toWei(amount_in_ether,'ether')\n",
    "    nonce=10\n",
    "    txn= {\n",
    "            'to': '0xE1096C6db7E8E8F0fDc94B2BD0f593dBB84D020A',\n",
    "            'value': amount_in_wei,\n",
    "            'gas': 2000000,\n",
    "            'gasPrice': w3.toWei('40', 'gwei'),\n",
    "            'nonce': nonce,\n",
    "            'chainId': 3\n",
    "    }\n",
    "    \n",
    "    signed_tx=w3.eth.account.sign_transaction(txn,wallet_private_key)\n",
    "    tx_hash=w3.eth.send_raw_transaction(signed_tx.rawTransaction)\n",
    "    return signed_tx,tx_hash"
   ]
  },
  {
   "cell_type": "code",
   "execution_count": 44,
   "id": "optical-bunny",
   "metadata": {},
   "outputs": [],
   "source": [
    "a,b=send_ether_to_contract(0.0001)"
   ]
  },
  {
   "cell_type": "code",
   "execution_count": 46,
   "id": "color-insert",
   "metadata": {},
   "outputs": [
    {
     "data": {
      "text/plain": [
       "SignedTransaction(rawTransaction=HexBytes('0xf86b0a8509502f9000831e848094e1096c6db7e8e8f0fdc94b2bd0f593dbb84d020a865af3107a4000802aa0cf9a5a6c6651d228757c368289ae344c19c82b0b59637b8718c47c3a8e95dcfaa018ff489ff4720626a01cadea5a943e57edf4579b86b54c5ce414b9ce64718566'), hash=HexBytes('0x106f121b2f8ffd51bcfea1197042f3ce3df667214ee81575f488da11fa87fbf6'), r=93901478184332977711476576083037271605650863704260907781078718164755755162874, s=11306555605628476253643618308166559158690282422575889187333261845710620427622, v=42)"
      ]
     },
     "execution_count": 46,
     "metadata": {},
     "output_type": "execute_result"
    }
   ],
   "source": [
    "a"
   ]
  },
  {
   "cell_type": "code",
   "execution_count": 47,
   "id": "distinct-strain",
   "metadata": {},
   "outputs": [
    {
     "data": {
      "text/plain": [
       "HexBytes('0x106f121b2f8ffd51bcfea1197042f3ce3df667214ee81575f488da11fa87fbf6')"
      ]
     },
     "execution_count": 47,
     "metadata": {},
     "output_type": "execute_result"
    }
   ],
   "source": [
    "b"
   ]
  },
  {
   "cell_type": "code",
   "execution_count": 20,
   "id": "unnecessary-raleigh",
   "metadata": {},
   "outputs": [
    {
     "data": {
      "text/plain": [
       "AttributeDict({'blockHash': HexBytes('0xeba1a34775b0796f1ae0ee7b8e1263bc68bebcf4aee57d898508e15d11d5c3e0'),\n",
       " 'blockNumber': 9816401,\n",
       " 'from': '0x98aaFC122f94f2f7d808d81dC943B18b55EEC5a2',\n",
       " 'gas': 426976,\n",
       " 'gasPrice': 2000000508,\n",
       " 'hash': HexBytes('0xa5b145b6e43d0d58647cc02e22992c02e4311cf2bf7d5aa51ad500dc22c5c4bf'),\n",
       " 'input': '0x6060604052341561000f57600080fd5b6100606040805190810160405280600b81526020017f43616e64696461746520310000000000000000000000000000000000000000008152506100b66401000000000261033c176401000000009004565b6100b16040805190810160405280600b81526020017f43616e64696461746520320000000000000000000000000000000000000000008152506100b66401000000000261033c176401000000009004565b6101d8565b60026000815480929190600101919050555060606040519081016040528060025481526020018281526020016000815250600160006002548152602001908152602001600020600082015181600001556020820151816001019080519060200190610122929190610133565b506040820151816002015590505050565b828054600181600116156101000203166002900490600052602060002090601f016020900481019282601f1061017457805160ff19168380011785556101a2565b828001600101855582156101a2579182015b828111156101a1578251825591602001919060010190610186565b5b5090506101af91906101b3565b5090565b6101d591905b808211156101d15760008160009055506001016101b9565b5090565b90565b61048a806101e76000396000f300606060405260043610610062576000357c0100000000000000000000000000000000000000000000000000000000900463ffffffff1680630121b93f146100675780632d35a8a21461008a5780633477ee2e146100b3578063a3ec138d1461017a575b600080fd5b341561007257600080fd5b61008860048080359060200190919050506101cb565b005b341561009557600080fd5b61009d6102ed565b6040518082815260200191505060405180910390f35b34156100be57600080fd5b6100d460048080359060200190919050506102f3565b60405180848152602001806020018381526020018281038252848181546001816001161561010002031660029004815260200191508054600181600116156101000203166002900480156101695780601f1061013e57610100808354040283529160200191610169565b820191906000526020600020905b81548152906001019060200180831161014c57829003601f168201915b505094505050505060405180910390f35b341561018557600080fd5b6101b1600480803573ffffffffffffffffffffffffffffffffffffffff1690602001909190505061031c565b604051808215151515815260200191505060405180910390f35b6000803373ffffffffffffffffffffffffffffffffffffffff1673ffffffffffffffffffffffffffffffffffffffff16815260200190815260200160002060009054906101000a900460ff1615151561022357600080fd5b60008111801561023557506002548111155b151561024057600080fd5b60016000803373ffffffffffffffffffffffffffffffffffffffff1673ffffffffffffffffffffffffffffffffffffffff16815260200190815260200160002060006101000a81548160ff0219169083151502179055506001600082815260200190815260200160002060020160008154809291906001019190505550807ffff3c900d938d21d0990d786e819f29b8d05c1ef587b462b939609625b684b1660405160405180910390a250565b60025481565b600160205280600052604060002060009150905080600001549080600101908060020154905083565b60006020528060005260406000206000915054906101000a900460ff1681565b600260008154809291906001019190505550606060405190810160405280600254815260200182815260200160008152506001600060025481526020019081526020016000206000820151816000015560208201518160010190805190602001906103a89291906103b9565b506040820151816002015590505050565b828054600181600116156101000203166002900490600052602060002090601f016020900481019282601f106103fa57805160ff1916838001178555610428565b82800160010185558215610428579182015b8281111561042757825182559160200191906001019061040c565b5b5090506104359190610439565b5090565b61045b91905b8082111561045757600081600090555060010161043f565b5090565b905600a165627a7a72305820cd0dc4009ce599c3052611aa2f6a5117d1b84f7b9ce5eafd5b24ef9a69a1c7640029',\n",
       " 'nonce': 2,\n",
       " 'r': HexBytes('0xca29c6d422a2299acd3996fd582f04b57b791863bba5b1e99e96b0297fc91cd8'),\n",
       " 's': HexBytes('0x433cbb37cd8ecdabd7567761f1e51079bd4b2f5946dde28e124f96c8151f42b6'),\n",
       " 'to': None,\n",
       " 'transactionIndex': 3,\n",
       " 'type': '0x0',\n",
       " 'v': 41,\n",
       " 'value': 0})"
      ]
     },
     "execution_count": 20,
     "metadata": {},
     "output_type": "execute_result"
    }
   ],
   "source": [
    "w3.eth.getTransaction('0xa5b145b6e43d0d58647cc02e22992c02e4311cf2bf7d5aa51ad500dc22c5c4bf')"
   ]
  },
  {
   "cell_type": "code",
   "execution_count": 28,
   "id": "musical-tradition",
   "metadata": {},
   "outputs": [
    {
     "ename": "InvalidAddress",
     "evalue": "('Web3.py only accepts checksum addresses. The software that gave you this non-checksum address should be considered unsafe, please file it as a bug on their platform. Try using an ENS name instead. Or, if you must accept lower safety, use Web3.toChecksumAddress(lower_case_address).', '0x98aafc122f94f2f7d808d81dc943b18b55eec5a2')",
     "output_type": "error",
     "traceback": [
      "\u001b[0;31m---------------------------------------------------------------------------\u001b[0m",
      "\u001b[0;31mInvalidAddress\u001b[0m                            Traceback (most recent call last)",
      "\u001b[0;32m<ipython-input-28-1353e75288a8>\u001b[0m in \u001b[0;36m<module>\u001b[0;34m\u001b[0m\n\u001b[0;32m----> 1\u001b[0;31m \u001b[0mw3\u001b[0m\u001b[0;34m.\u001b[0m\u001b[0meth\u001b[0m\u001b[0;34m.\u001b[0m\u001b[0mgetTransactionCount\u001b[0m\u001b[0;34m(\u001b[0m\u001b[0mwallet_address\u001b[0m\u001b[0;34m)\u001b[0m\u001b[0;34m\u001b[0m\u001b[0;34m\u001b[0m\u001b[0m\n\u001b[0m",
      "\u001b[0;32m~/.local/lib/python3.8/site-packages/web3/module.py\u001b[0m in \u001b[0;36mcaller\u001b[0;34m(*args, **kwargs)\u001b[0m\n\u001b[1;32m     52\u001b[0m     \u001b[0;32mdef\u001b[0m \u001b[0mcaller\u001b[0m\u001b[0;34m(\u001b[0m\u001b[0;34m*\u001b[0m\u001b[0margs\u001b[0m\u001b[0;34m:\u001b[0m \u001b[0mAny\u001b[0m\u001b[0;34m,\u001b[0m \u001b[0;34m**\u001b[0m\u001b[0mkwargs\u001b[0m\u001b[0;34m:\u001b[0m \u001b[0mAny\u001b[0m\u001b[0;34m)\u001b[0m \u001b[0;34m->\u001b[0m \u001b[0mUnion\u001b[0m\u001b[0;34m[\u001b[0m\u001b[0mTReturn\u001b[0m\u001b[0;34m,\u001b[0m \u001b[0mLogFilter\u001b[0m\u001b[0;34m]\u001b[0m\u001b[0;34m:\u001b[0m\u001b[0;34m\u001b[0m\u001b[0;34m\u001b[0m\u001b[0m\n\u001b[1;32m     53\u001b[0m         \u001b[0;32mtry\u001b[0m\u001b[0;34m:\u001b[0m\u001b[0;34m\u001b[0m\u001b[0;34m\u001b[0m\u001b[0m\n\u001b[0;32m---> 54\u001b[0;31m             \u001b[0;34m(\u001b[0m\u001b[0mmethod_str\u001b[0m\u001b[0;34m,\u001b[0m \u001b[0mparams\u001b[0m\u001b[0;34m)\u001b[0m\u001b[0;34m,\u001b[0m \u001b[0mresponse_formatters\u001b[0m \u001b[0;34m=\u001b[0m \u001b[0mmethod\u001b[0m\u001b[0;34m.\u001b[0m\u001b[0mprocess_params\u001b[0m\u001b[0;34m(\u001b[0m\u001b[0mmodule\u001b[0m\u001b[0;34m,\u001b[0m \u001b[0;34m*\u001b[0m\u001b[0margs\u001b[0m\u001b[0;34m,\u001b[0m \u001b[0;34m**\u001b[0m\u001b[0mkwargs\u001b[0m\u001b[0;34m)\u001b[0m  \u001b[0;31m# noqa: E501\u001b[0m\u001b[0;34m\u001b[0m\u001b[0;34m\u001b[0m\u001b[0m\n\u001b[0m\u001b[1;32m     55\u001b[0m         \u001b[0;32mexcept\u001b[0m \u001b[0m_UseExistingFilter\u001b[0m \u001b[0;32mas\u001b[0m \u001b[0merr\u001b[0m\u001b[0;34m:\u001b[0m\u001b[0;34m\u001b[0m\u001b[0;34m\u001b[0m\u001b[0m\n\u001b[1;32m     56\u001b[0m             \u001b[0;32mreturn\u001b[0m \u001b[0mLogFilter\u001b[0m\u001b[0;34m(\u001b[0m\u001b[0meth_module\u001b[0m\u001b[0;34m=\u001b[0m\u001b[0mmodule\u001b[0m\u001b[0;34m,\u001b[0m \u001b[0mfilter_id\u001b[0m\u001b[0;34m=\u001b[0m\u001b[0merr\u001b[0m\u001b[0;34m.\u001b[0m\u001b[0mfilter_id\u001b[0m\u001b[0;34m)\u001b[0m\u001b[0;34m\u001b[0m\u001b[0;34m\u001b[0m\u001b[0m\n",
      "\u001b[0;32m~/.local/lib/python3.8/site-packages/web3/method.py\u001b[0m in \u001b[0;36mprocess_params\u001b[0;34m(self, module, *args, **kwargs)\u001b[0m\n\u001b[1;32m    195\u001b[0m \u001b[0;34m\u001b[0m\u001b[0m\n\u001b[1;32m    196\u001b[0m         request = (method,\n\u001b[0;32m--> 197\u001b[0;31m                    _apply_request_formatters(params, self.request_formatters(method)))\n\u001b[0m\u001b[1;32m    198\u001b[0m \u001b[0;34m\u001b[0m\u001b[0m\n\u001b[1;32m    199\u001b[0m         \u001b[0;32mreturn\u001b[0m \u001b[0mrequest\u001b[0m\u001b[0;34m,\u001b[0m \u001b[0mresponse_formatters\u001b[0m\u001b[0;34m\u001b[0m\u001b[0;34m\u001b[0m\u001b[0m\n",
      "\u001b[0;32m~/.local/lib/python3.8/site-packages/eth_utils/functional.py\u001b[0m in \u001b[0;36minner\u001b[0;34m(*args, **kwargs)\u001b[0m\n\u001b[1;32m     43\u001b[0m         \u001b[0;34m@\u001b[0m\u001b[0mfunctools\u001b[0m\u001b[0;34m.\u001b[0m\u001b[0mwraps\u001b[0m\u001b[0;34m(\u001b[0m\u001b[0mfn\u001b[0m\u001b[0;34m)\u001b[0m\u001b[0;34m\u001b[0m\u001b[0;34m\u001b[0m\u001b[0m\n\u001b[1;32m     44\u001b[0m         \u001b[0;32mdef\u001b[0m \u001b[0minner\u001b[0m\u001b[0;34m(\u001b[0m\u001b[0;34m*\u001b[0m\u001b[0margs\u001b[0m\u001b[0;34m,\u001b[0m \u001b[0;34m**\u001b[0m\u001b[0mkwargs\u001b[0m\u001b[0;34m)\u001b[0m \u001b[0;34m->\u001b[0m \u001b[0mT\u001b[0m\u001b[0;34m:\u001b[0m  \u001b[0;31m# type: ignore\u001b[0m\u001b[0;34m\u001b[0m\u001b[0;34m\u001b[0m\u001b[0m\n\u001b[0;32m---> 45\u001b[0;31m             \u001b[0;32mreturn\u001b[0m \u001b[0mcallback\u001b[0m\u001b[0;34m(\u001b[0m\u001b[0mfn\u001b[0m\u001b[0;34m(\u001b[0m\u001b[0;34m*\u001b[0m\u001b[0margs\u001b[0m\u001b[0;34m,\u001b[0m \u001b[0;34m**\u001b[0m\u001b[0mkwargs\u001b[0m\u001b[0;34m)\u001b[0m\u001b[0;34m)\u001b[0m\u001b[0;34m\u001b[0m\u001b[0;34m\u001b[0m\u001b[0m\n\u001b[0m\u001b[1;32m     46\u001b[0m \u001b[0;34m\u001b[0m\u001b[0m\n\u001b[1;32m     47\u001b[0m         \u001b[0;32mreturn\u001b[0m \u001b[0minner\u001b[0m\u001b[0;34m\u001b[0m\u001b[0;34m\u001b[0m\u001b[0m\n",
      "\u001b[0;32m~/.local/lib/python3.8/site-packages/web3/method.py\u001b[0m in \u001b[0;36m_apply_request_formatters\u001b[0;34m(params, request_formatters)\u001b[0m\n\u001b[1;32m     51\u001b[0m ) -> Any:\n\u001b[1;32m     52\u001b[0m     \u001b[0;32mif\u001b[0m \u001b[0mrequest_formatters\u001b[0m\u001b[0;34m:\u001b[0m\u001b[0;34m\u001b[0m\u001b[0;34m\u001b[0m\u001b[0m\n\u001b[0;32m---> 53\u001b[0;31m         \u001b[0mformatted_params\u001b[0m \u001b[0;34m=\u001b[0m \u001b[0mpipe\u001b[0m\u001b[0;34m(\u001b[0m\u001b[0mparams\u001b[0m\u001b[0;34m,\u001b[0m \u001b[0mrequest_formatters\u001b[0m\u001b[0;34m)\u001b[0m\u001b[0;34m\u001b[0m\u001b[0;34m\u001b[0m\u001b[0m\n\u001b[0m\u001b[1;32m     54\u001b[0m         \u001b[0;32mreturn\u001b[0m \u001b[0mformatted_params\u001b[0m\u001b[0;34m\u001b[0m\u001b[0;34m\u001b[0m\u001b[0m\n\u001b[1;32m     55\u001b[0m     \u001b[0;32mreturn\u001b[0m \u001b[0mparams\u001b[0m\u001b[0;34m\u001b[0m\u001b[0;34m\u001b[0m\u001b[0m\n",
      "\u001b[0;32m~/.local/lib/python3.8/site-packages/cytoolz/functoolz.pyx\u001b[0m in \u001b[0;36mcytoolz.functoolz.pipe\u001b[0;34m()\u001b[0m\n",
      "\u001b[0;32m~/.local/lib/python3.8/site-packages/cytoolz/functoolz.pyx\u001b[0m in \u001b[0;36mcytoolz.functoolz.c_pipe\u001b[0;34m()\u001b[0m\n",
      "\u001b[0;32m~/.local/lib/python3.8/site-packages/cytoolz/functoolz.pyx\u001b[0m in \u001b[0;36mcytoolz.functoolz.Compose.__call__\u001b[0;34m()\u001b[0m\n",
      "\u001b[0;32m~/.local/lib/python3.8/site-packages/cytoolz/functoolz.pyx\u001b[0m in \u001b[0;36mcytoolz.functoolz.curry.__call__\u001b[0;34m()\u001b[0m\n",
      "\u001b[0;32m~/.local/lib/python3.8/site-packages/web3/_utils/abi.py\u001b[0m in \u001b[0;36mmap_abi_data\u001b[0;34m(normalizers, types, data)\u001b[0m\n\u001b[1;32m    797\u001b[0m     )\n\u001b[1;32m    798\u001b[0m \u001b[0;34m\u001b[0m\u001b[0m\n\u001b[0;32m--> 799\u001b[0;31m     \u001b[0;32mreturn\u001b[0m \u001b[0mpipe\u001b[0m\u001b[0;34m(\u001b[0m\u001b[0mdata\u001b[0m\u001b[0;34m,\u001b[0m \u001b[0;34m*\u001b[0m\u001b[0mpipeline\u001b[0m\u001b[0;34m)\u001b[0m\u001b[0;34m\u001b[0m\u001b[0;34m\u001b[0m\u001b[0m\n\u001b[0m\u001b[1;32m    800\u001b[0m \u001b[0;34m\u001b[0m\u001b[0m\n\u001b[1;32m    801\u001b[0m \u001b[0;34m\u001b[0m\u001b[0m\n",
      "\u001b[0;32m~/.local/lib/python3.8/site-packages/cytoolz/functoolz.pyx\u001b[0m in \u001b[0;36mcytoolz.functoolz.pipe\u001b[0;34m()\u001b[0m\n",
      "\u001b[0;32m~/.local/lib/python3.8/site-packages/cytoolz/functoolz.pyx\u001b[0m in \u001b[0;36mcytoolz.functoolz.c_pipe\u001b[0;34m()\u001b[0m\n",
      "\u001b[0;32m~/.local/lib/python3.8/site-packages/cytoolz/functoolz.pyx\u001b[0m in \u001b[0;36mcytoolz.functoolz.curry.__call__\u001b[0;34m()\u001b[0m\n",
      "\u001b[0;32m~/.local/lib/python3.8/site-packages/web3/_utils/abi.py\u001b[0m in \u001b[0;36mdata_tree_map\u001b[0;34m(func, data_tree)\u001b[0m\n\u001b[1;32m    831\u001b[0m         \u001b[0;32melse\u001b[0m\u001b[0;34m:\u001b[0m\u001b[0;34m\u001b[0m\u001b[0;34m\u001b[0m\u001b[0m\n\u001b[1;32m    832\u001b[0m             \u001b[0;32mreturn\u001b[0m \u001b[0melements\u001b[0m\u001b[0;34m\u001b[0m\u001b[0;34m\u001b[0m\u001b[0m\n\u001b[0;32m--> 833\u001b[0;31m     \u001b[0;32mreturn\u001b[0m \u001b[0mrecursive_map\u001b[0m\u001b[0;34m(\u001b[0m\u001b[0mmap_to_typed_data\u001b[0m\u001b[0;34m,\u001b[0m \u001b[0mdata_tree\u001b[0m\u001b[0;34m)\u001b[0m\u001b[0;34m\u001b[0m\u001b[0;34m\u001b[0m\u001b[0m\n\u001b[0m\u001b[1;32m    834\u001b[0m \u001b[0;34m\u001b[0m\u001b[0m\n\u001b[1;32m    835\u001b[0m \u001b[0;34m\u001b[0m\u001b[0m\n",
      "\u001b[0;32m~/.local/lib/python3.8/site-packages/web3/_utils/decorators.py\u001b[0m in \u001b[0;36mwrapped\u001b[0;34m(*args)\u001b[0m\n\u001b[1;32m     28\u001b[0m         \u001b[0mto_wrap\u001b[0m\u001b[0;34m.\u001b[0m\u001b[0m__already_called\u001b[0m\u001b[0;34m[\u001b[0m\u001b[0mthread_local_args\u001b[0m\u001b[0;34m]\u001b[0m \u001b[0;34m=\u001b[0m \u001b[0;32mTrue\u001b[0m  \u001b[0;31m# type: ignore\u001b[0m\u001b[0;34m\u001b[0m\u001b[0;34m\u001b[0m\u001b[0m\n\u001b[1;32m     29\u001b[0m         \u001b[0;32mtry\u001b[0m\u001b[0;34m:\u001b[0m\u001b[0;34m\u001b[0m\u001b[0;34m\u001b[0m\u001b[0m\n\u001b[0;32m---> 30\u001b[0;31m             \u001b[0mwrapped_val\u001b[0m \u001b[0;34m=\u001b[0m \u001b[0mto_wrap\u001b[0m\u001b[0;34m(\u001b[0m\u001b[0;34m*\u001b[0m\u001b[0margs\u001b[0m\u001b[0;34m)\u001b[0m\u001b[0;34m\u001b[0m\u001b[0;34m\u001b[0m\u001b[0m\n\u001b[0m\u001b[1;32m     31\u001b[0m         \u001b[0;32mfinally\u001b[0m\u001b[0;34m:\u001b[0m\u001b[0;34m\u001b[0m\u001b[0;34m\u001b[0m\u001b[0m\n\u001b[1;32m     32\u001b[0m             \u001b[0;32mdel\u001b[0m \u001b[0mto_wrap\u001b[0m\u001b[0;34m.\u001b[0m\u001b[0m__already_called\u001b[0m\u001b[0;34m[\u001b[0m\u001b[0mthread_local_args\u001b[0m\u001b[0;34m]\u001b[0m  \u001b[0;31m# type: ignore\u001b[0m\u001b[0;34m\u001b[0m\u001b[0;34m\u001b[0m\u001b[0m\n",
      "\u001b[0;32m~/.local/lib/python3.8/site-packages/web3/_utils/formatters.py\u001b[0m in \u001b[0;36mrecursive_map\u001b[0;34m(func, data)\u001b[0m\n\u001b[1;32m     87\u001b[0m     \u001b[0;32mdef\u001b[0m \u001b[0mrecurse\u001b[0m\u001b[0;34m(\u001b[0m\u001b[0mitem\u001b[0m\u001b[0;34m:\u001b[0m \u001b[0mAny\u001b[0m\u001b[0;34m)\u001b[0m \u001b[0;34m->\u001b[0m \u001b[0mTReturn\u001b[0m\u001b[0;34m:\u001b[0m\u001b[0;34m\u001b[0m\u001b[0;34m\u001b[0m\u001b[0m\n\u001b[1;32m     88\u001b[0m         \u001b[0;32mreturn\u001b[0m \u001b[0mrecursive_map\u001b[0m\u001b[0;34m(\u001b[0m\u001b[0mfunc\u001b[0m\u001b[0;34m,\u001b[0m \u001b[0mitem\u001b[0m\u001b[0;34m)\u001b[0m\u001b[0;34m\u001b[0m\u001b[0;34m\u001b[0m\u001b[0m\n\u001b[0;32m---> 89\u001b[0;31m     \u001b[0mitems_mapped\u001b[0m \u001b[0;34m=\u001b[0m \u001b[0mmap_collection\u001b[0m\u001b[0;34m(\u001b[0m\u001b[0mrecurse\u001b[0m\u001b[0;34m,\u001b[0m \u001b[0mdata\u001b[0m\u001b[0;34m)\u001b[0m\u001b[0;34m\u001b[0m\u001b[0;34m\u001b[0m\u001b[0m\n\u001b[0m\u001b[1;32m     90\u001b[0m     \u001b[0;32mreturn\u001b[0m \u001b[0mfunc\u001b[0m\u001b[0;34m(\u001b[0m\u001b[0mitems_mapped\u001b[0m\u001b[0;34m)\u001b[0m\u001b[0;34m\u001b[0m\u001b[0;34m\u001b[0m\u001b[0m\n\u001b[1;32m     91\u001b[0m \u001b[0;34m\u001b[0m\u001b[0m\n",
      "\u001b[0;32m~/.local/lib/python3.8/site-packages/web3/_utils/formatters.py\u001b[0m in \u001b[0;36mmap_collection\u001b[0;34m(func, collection)\u001b[0m\n\u001b[1;32m     74\u001b[0m         \u001b[0;32mreturn\u001b[0m \u001b[0mcollection\u001b[0m\u001b[0;34m\u001b[0m\u001b[0;34m\u001b[0m\u001b[0m\n\u001b[1;32m     75\u001b[0m     \u001b[0;32melif\u001b[0m \u001b[0misinstance\u001b[0m\u001b[0;34m(\u001b[0m\u001b[0mcollection\u001b[0m\u001b[0;34m,\u001b[0m \u001b[0mIterable\u001b[0m\u001b[0;34m)\u001b[0m\u001b[0;34m:\u001b[0m\u001b[0;34m\u001b[0m\u001b[0;34m\u001b[0m\u001b[0m\n\u001b[0;32m---> 76\u001b[0;31m         \u001b[0;32mreturn\u001b[0m \u001b[0mdatatype\u001b[0m\u001b[0;34m(\u001b[0m\u001b[0mmap\u001b[0m\u001b[0;34m(\u001b[0m\u001b[0mfunc\u001b[0m\u001b[0;34m,\u001b[0m \u001b[0mcollection\u001b[0m\u001b[0;34m)\u001b[0m\u001b[0;34m)\u001b[0m\u001b[0;34m\u001b[0m\u001b[0;34m\u001b[0m\u001b[0m\n\u001b[0m\u001b[1;32m     77\u001b[0m     \u001b[0;32melse\u001b[0m\u001b[0;34m:\u001b[0m\u001b[0;34m\u001b[0m\u001b[0;34m\u001b[0m\u001b[0m\n\u001b[1;32m     78\u001b[0m         \u001b[0;32mreturn\u001b[0m \u001b[0mcollection\u001b[0m\u001b[0;34m\u001b[0m\u001b[0;34m\u001b[0m\u001b[0m\n",
      "\u001b[0;32m~/.local/lib/python3.8/site-packages/web3/_utils/formatters.py\u001b[0m in \u001b[0;36mrecurse\u001b[0;34m(item)\u001b[0m\n\u001b[1;32m     86\u001b[0m     \"\"\"\n\u001b[1;32m     87\u001b[0m     \u001b[0;32mdef\u001b[0m \u001b[0mrecurse\u001b[0m\u001b[0;34m(\u001b[0m\u001b[0mitem\u001b[0m\u001b[0;34m:\u001b[0m \u001b[0mAny\u001b[0m\u001b[0;34m)\u001b[0m \u001b[0;34m->\u001b[0m \u001b[0mTReturn\u001b[0m\u001b[0;34m:\u001b[0m\u001b[0;34m\u001b[0m\u001b[0;34m\u001b[0m\u001b[0m\n\u001b[0;32m---> 88\u001b[0;31m         \u001b[0;32mreturn\u001b[0m \u001b[0mrecursive_map\u001b[0m\u001b[0;34m(\u001b[0m\u001b[0mfunc\u001b[0m\u001b[0;34m,\u001b[0m \u001b[0mitem\u001b[0m\u001b[0;34m)\u001b[0m\u001b[0;34m\u001b[0m\u001b[0;34m\u001b[0m\u001b[0m\n\u001b[0m\u001b[1;32m     89\u001b[0m     \u001b[0mitems_mapped\u001b[0m \u001b[0;34m=\u001b[0m \u001b[0mmap_collection\u001b[0m\u001b[0;34m(\u001b[0m\u001b[0mrecurse\u001b[0m\u001b[0;34m,\u001b[0m \u001b[0mdata\u001b[0m\u001b[0;34m)\u001b[0m\u001b[0;34m\u001b[0m\u001b[0;34m\u001b[0m\u001b[0m\n\u001b[1;32m     90\u001b[0m     \u001b[0;32mreturn\u001b[0m \u001b[0mfunc\u001b[0m\u001b[0;34m(\u001b[0m\u001b[0mitems_mapped\u001b[0m\u001b[0;34m)\u001b[0m\u001b[0;34m\u001b[0m\u001b[0;34m\u001b[0m\u001b[0m\n",
      "\u001b[0;32m~/.local/lib/python3.8/site-packages/web3/_utils/decorators.py\u001b[0m in \u001b[0;36mwrapped\u001b[0;34m(*args)\u001b[0m\n\u001b[1;32m     28\u001b[0m         \u001b[0mto_wrap\u001b[0m\u001b[0;34m.\u001b[0m\u001b[0m__already_called\u001b[0m\u001b[0;34m[\u001b[0m\u001b[0mthread_local_args\u001b[0m\u001b[0;34m]\u001b[0m \u001b[0;34m=\u001b[0m \u001b[0;32mTrue\u001b[0m  \u001b[0;31m# type: ignore\u001b[0m\u001b[0;34m\u001b[0m\u001b[0;34m\u001b[0m\u001b[0m\n\u001b[1;32m     29\u001b[0m         \u001b[0;32mtry\u001b[0m\u001b[0;34m:\u001b[0m\u001b[0;34m\u001b[0m\u001b[0;34m\u001b[0m\u001b[0m\n\u001b[0;32m---> 30\u001b[0;31m             \u001b[0mwrapped_val\u001b[0m \u001b[0;34m=\u001b[0m \u001b[0mto_wrap\u001b[0m\u001b[0;34m(\u001b[0m\u001b[0;34m*\u001b[0m\u001b[0margs\u001b[0m\u001b[0;34m)\u001b[0m\u001b[0;34m\u001b[0m\u001b[0;34m\u001b[0m\u001b[0m\n\u001b[0m\u001b[1;32m     31\u001b[0m         \u001b[0;32mfinally\u001b[0m\u001b[0;34m:\u001b[0m\u001b[0;34m\u001b[0m\u001b[0;34m\u001b[0m\u001b[0m\n\u001b[1;32m     32\u001b[0m             \u001b[0;32mdel\u001b[0m \u001b[0mto_wrap\u001b[0m\u001b[0;34m.\u001b[0m\u001b[0m__already_called\u001b[0m\u001b[0;34m[\u001b[0m\u001b[0mthread_local_args\u001b[0m\u001b[0;34m]\u001b[0m  \u001b[0;31m# type: ignore\u001b[0m\u001b[0;34m\u001b[0m\u001b[0;34m\u001b[0m\u001b[0m\n",
      "\u001b[0;32m~/.local/lib/python3.8/site-packages/web3/_utils/formatters.py\u001b[0m in \u001b[0;36mrecursive_map\u001b[0;34m(func, data)\u001b[0m\n\u001b[1;32m     88\u001b[0m         \u001b[0;32mreturn\u001b[0m \u001b[0mrecursive_map\u001b[0m\u001b[0;34m(\u001b[0m\u001b[0mfunc\u001b[0m\u001b[0;34m,\u001b[0m \u001b[0mitem\u001b[0m\u001b[0;34m)\u001b[0m\u001b[0;34m\u001b[0m\u001b[0;34m\u001b[0m\u001b[0m\n\u001b[1;32m     89\u001b[0m     \u001b[0mitems_mapped\u001b[0m \u001b[0;34m=\u001b[0m \u001b[0mmap_collection\u001b[0m\u001b[0;34m(\u001b[0m\u001b[0mrecurse\u001b[0m\u001b[0;34m,\u001b[0m \u001b[0mdata\u001b[0m\u001b[0;34m)\u001b[0m\u001b[0;34m\u001b[0m\u001b[0;34m\u001b[0m\u001b[0m\n\u001b[0;32m---> 90\u001b[0;31m     \u001b[0;32mreturn\u001b[0m \u001b[0mfunc\u001b[0m\u001b[0;34m(\u001b[0m\u001b[0mitems_mapped\u001b[0m\u001b[0;34m)\u001b[0m\u001b[0;34m\u001b[0m\u001b[0;34m\u001b[0m\u001b[0m\n\u001b[0m\u001b[1;32m     91\u001b[0m \u001b[0;34m\u001b[0m\u001b[0m\n\u001b[1;32m     92\u001b[0m \u001b[0;34m\u001b[0m\u001b[0m\n",
      "\u001b[0;32m~/.local/lib/python3.8/site-packages/web3/_utils/abi.py\u001b[0m in \u001b[0;36mmap_to_typed_data\u001b[0;34m(elements)\u001b[0m\n\u001b[1;32m    828\u001b[0m     \u001b[0;32mdef\u001b[0m \u001b[0mmap_to_typed_data\u001b[0m\u001b[0;34m(\u001b[0m\u001b[0melements\u001b[0m\u001b[0;34m:\u001b[0m \u001b[0mAny\u001b[0m\u001b[0;34m)\u001b[0m \u001b[0;34m->\u001b[0m \u001b[0;34m\"ABITypedData\"\u001b[0m\u001b[0;34m:\u001b[0m\u001b[0;34m\u001b[0m\u001b[0;34m\u001b[0m\u001b[0m\n\u001b[1;32m    829\u001b[0m         \u001b[0;32mif\u001b[0m \u001b[0misinstance\u001b[0m\u001b[0;34m(\u001b[0m\u001b[0melements\u001b[0m\u001b[0;34m,\u001b[0m \u001b[0mABITypedData\u001b[0m\u001b[0;34m)\u001b[0m \u001b[0;32mand\u001b[0m \u001b[0melements\u001b[0m\u001b[0;34m.\u001b[0m\u001b[0mabi_type\u001b[0m \u001b[0;32mis\u001b[0m \u001b[0;32mnot\u001b[0m \u001b[0;32mNone\u001b[0m\u001b[0;34m:\u001b[0m\u001b[0;34m\u001b[0m\u001b[0;34m\u001b[0m\u001b[0m\n\u001b[0;32m--> 830\u001b[0;31m             \u001b[0;32mreturn\u001b[0m \u001b[0mABITypedData\u001b[0m\u001b[0;34m(\u001b[0m\u001b[0mfunc\u001b[0m\u001b[0;34m(\u001b[0m\u001b[0;34m*\u001b[0m\u001b[0melements\u001b[0m\u001b[0;34m)\u001b[0m\u001b[0;34m)\u001b[0m\u001b[0;34m\u001b[0m\u001b[0;34m\u001b[0m\u001b[0m\n\u001b[0m\u001b[1;32m    831\u001b[0m         \u001b[0;32melse\u001b[0m\u001b[0;34m:\u001b[0m\u001b[0;34m\u001b[0m\u001b[0;34m\u001b[0m\u001b[0m\n\u001b[1;32m    832\u001b[0m             \u001b[0;32mreturn\u001b[0m \u001b[0melements\u001b[0m\u001b[0;34m\u001b[0m\u001b[0;34m\u001b[0m\u001b[0m\n",
      "\u001b[0;32m~/.local/lib/python3.8/site-packages/web3/_utils/normalizers.py\u001b[0m in \u001b[0;36mwrapper\u001b[0;34m(type_str, data)\u001b[0m\n\u001b[1;32m     76\u001b[0m     \u001b[0;34m@\u001b[0m\u001b[0mfunctools\u001b[0m\u001b[0;34m.\u001b[0m\u001b[0mwraps\u001b[0m\u001b[0;34m(\u001b[0m\u001b[0mto_wrap\u001b[0m\u001b[0;34m)\u001b[0m\u001b[0;34m\u001b[0m\u001b[0;34m\u001b[0m\u001b[0m\n\u001b[1;32m     77\u001b[0m     \u001b[0;32mdef\u001b[0m \u001b[0mwrapper\u001b[0m\u001b[0;34m(\u001b[0m\u001b[0mtype_str\u001b[0m\u001b[0;34m:\u001b[0m \u001b[0mTypeStr\u001b[0m\u001b[0;34m,\u001b[0m \u001b[0mdata\u001b[0m\u001b[0;34m:\u001b[0m \u001b[0mAny\u001b[0m\u001b[0;34m)\u001b[0m \u001b[0;34m->\u001b[0m \u001b[0mTuple\u001b[0m\u001b[0;34m[\u001b[0m\u001b[0mTypeStr\u001b[0m\u001b[0;34m,\u001b[0m \u001b[0mAny\u001b[0m\u001b[0;34m]\u001b[0m\u001b[0;34m:\u001b[0m\u001b[0;34m\u001b[0m\u001b[0;34m\u001b[0m\u001b[0m\n\u001b[0;32m---> 78\u001b[0;31m         \u001b[0mmodified\u001b[0m \u001b[0;34m=\u001b[0m \u001b[0mto_wrap\u001b[0m\u001b[0;34m(\u001b[0m\u001b[0mtype_str\u001b[0m\u001b[0;34m,\u001b[0m \u001b[0mdata\u001b[0m\u001b[0;34m)\u001b[0m\u001b[0;34m\u001b[0m\u001b[0;34m\u001b[0m\u001b[0m\n\u001b[0m\u001b[1;32m     79\u001b[0m         \u001b[0;32mif\u001b[0m \u001b[0mmodified\u001b[0m \u001b[0;32mis\u001b[0m \u001b[0;32mNone\u001b[0m\u001b[0;34m:\u001b[0m\u001b[0;34m\u001b[0m\u001b[0;34m\u001b[0m\u001b[0m\n\u001b[1;32m     80\u001b[0m             \u001b[0;32mreturn\u001b[0m \u001b[0mtype_str\u001b[0m\u001b[0;34m,\u001b[0m \u001b[0mdata\u001b[0m\u001b[0;34m\u001b[0m\u001b[0;34m\u001b[0m\u001b[0m\n",
      "\u001b[0;32m~/.local/lib/python3.8/site-packages/web3/_utils/normalizers.py\u001b[0m in \u001b[0;36mabi_address_to_hex\u001b[0;34m(type_str, data)\u001b[0m\n\u001b[1;32m    194\u001b[0m \u001b[0;32mdef\u001b[0m \u001b[0mabi_address_to_hex\u001b[0m\u001b[0;34m(\u001b[0m\u001b[0mtype_str\u001b[0m\u001b[0;34m:\u001b[0m \u001b[0mTypeStr\u001b[0m\u001b[0;34m,\u001b[0m \u001b[0mdata\u001b[0m\u001b[0;34m:\u001b[0m \u001b[0mAny\u001b[0m\u001b[0;34m)\u001b[0m \u001b[0;34m->\u001b[0m \u001b[0mOptional\u001b[0m\u001b[0;34m[\u001b[0m\u001b[0mTuple\u001b[0m\u001b[0;34m[\u001b[0m\u001b[0mTypeStr\u001b[0m\u001b[0;34m,\u001b[0m \u001b[0mChecksumAddress\u001b[0m\u001b[0;34m]\u001b[0m\u001b[0;34m]\u001b[0m\u001b[0;34m:\u001b[0m\u001b[0;34m\u001b[0m\u001b[0;34m\u001b[0m\u001b[0m\n\u001b[1;32m    195\u001b[0m     \u001b[0;32mif\u001b[0m \u001b[0mtype_str\u001b[0m \u001b[0;34m==\u001b[0m \u001b[0;34m'address'\u001b[0m\u001b[0;34m:\u001b[0m\u001b[0;34m\u001b[0m\u001b[0;34m\u001b[0m\u001b[0m\n\u001b[0;32m--> 196\u001b[0;31m         \u001b[0mvalidate_address\u001b[0m\u001b[0;34m(\u001b[0m\u001b[0mdata\u001b[0m\u001b[0;34m)\u001b[0m\u001b[0;34m\u001b[0m\u001b[0;34m\u001b[0m\u001b[0m\n\u001b[0m\u001b[1;32m    197\u001b[0m         \u001b[0;32mif\u001b[0m \u001b[0mis_binary_address\u001b[0m\u001b[0;34m(\u001b[0m\u001b[0mdata\u001b[0m\u001b[0;34m)\u001b[0m\u001b[0;34m:\u001b[0m\u001b[0;34m\u001b[0m\u001b[0;34m\u001b[0m\u001b[0m\n\u001b[1;32m    198\u001b[0m             \u001b[0;32mreturn\u001b[0m \u001b[0mtype_str\u001b[0m\u001b[0;34m,\u001b[0m \u001b[0mto_checksum_address\u001b[0m\u001b[0;34m(\u001b[0m\u001b[0mdata\u001b[0m\u001b[0;34m)\u001b[0m\u001b[0;34m\u001b[0m\u001b[0;34m\u001b[0m\u001b[0m\n",
      "\u001b[0;32m~/.local/lib/python3.8/site-packages/web3/_utils/validation.py\u001b[0m in \u001b[0;36mvalidate_address\u001b[0;34m(value)\u001b[0m\n\u001b[1;32m    180\u001b[0m     \u001b[0;32mif\u001b[0m \u001b[0;32mnot\u001b[0m \u001b[0mis_checksum_address\u001b[0m\u001b[0;34m(\u001b[0m\u001b[0mvalue\u001b[0m\u001b[0;34m)\u001b[0m\u001b[0;34m:\u001b[0m\u001b[0;34m\u001b[0m\u001b[0;34m\u001b[0m\u001b[0m\n\u001b[1;32m    181\u001b[0m         \u001b[0;32mif\u001b[0m \u001b[0mvalue\u001b[0m \u001b[0;34m==\u001b[0m \u001b[0mvalue\u001b[0m\u001b[0;34m.\u001b[0m\u001b[0mlower\u001b[0m\u001b[0;34m(\u001b[0m\u001b[0;34m)\u001b[0m\u001b[0;34m:\u001b[0m\u001b[0;34m\u001b[0m\u001b[0;34m\u001b[0m\u001b[0m\n\u001b[0;32m--> 182\u001b[0;31m             raise InvalidAddress(\n\u001b[0m\u001b[1;32m    183\u001b[0m                 \u001b[0;34m\"Web3.py only accepts checksum addresses. \"\u001b[0m\u001b[0;34m\u001b[0m\u001b[0;34m\u001b[0m\u001b[0m\n\u001b[1;32m    184\u001b[0m                 \u001b[0;34m\"The software that gave you this non-checksum address should be considered unsafe, \"\u001b[0m\u001b[0;34m\u001b[0m\u001b[0;34m\u001b[0m\u001b[0m\n",
      "\u001b[0;31mInvalidAddress\u001b[0m: ('Web3.py only accepts checksum addresses. The software that gave you this non-checksum address should be considered unsafe, please file it as a bug on their platform. Try using an ENS name instead. Or, if you must accept lower safety, use Web3.toChecksumAddress(lower_case_address).', '0x98aafc122f94f2f7d808d81dc943b18b55eec5a2')"
     ]
    }
   ],
   "source": [
    "w3.eth.getTransactionCount(wallet_address)"
   ]
  },
  {
   "cell_type": "code",
   "execution_count": null,
   "id": "double-potato",
   "metadata": {},
   "outputs": [],
   "source": [
    "contract_address"
   ]
  },
  {
   "cell_type": "code",
   "execution_count": null,
   "id": "adaptive-southeast",
   "metadata": {},
   "outputs": [],
   "source": []
  },
  {
   "cell_type": "code",
   "execution_count": null,
   "id": "rotary-banner",
   "metadata": {},
   "outputs": [],
   "source": []
  },
  {
   "cell_type": "code",
   "execution_count": null,
   "id": "loaded-stage",
   "metadata": {},
   "outputs": [],
   "source": []
  },
  {
   "cell_type": "code",
   "execution_count": null,
   "id": "coral-train",
   "metadata": {},
   "outputs": [],
   "source": []
  },
  {
   "cell_type": "code",
   "execution_count": null,
   "id": "fitted-opening",
   "metadata": {},
   "outputs": [],
   "source": []
  },
  {
   "cell_type": "code",
   "execution_count": null,
   "id": "impossible-orientation",
   "metadata": {},
   "outputs": [],
   "source": []
  },
  {
   "cell_type": "code",
   "execution_count": null,
   "id": "disciplinary-shirt",
   "metadata": {},
   "outputs": [],
   "source": []
  },
  {
   "cell_type": "code",
   "execution_count": null,
   "id": "after-concern",
   "metadata": {},
   "outputs": [],
   "source": []
  },
  {
   "cell_type": "code",
   "execution_count": null,
   "id": "filled-inspector",
   "metadata": {},
   "outputs": [],
   "source": []
  },
  {
   "cell_type": "code",
   "execution_count": null,
   "id": "bibliographic-philadelphia",
   "metadata": {},
   "outputs": [],
   "source": []
  },
  {
   "cell_type": "code",
   "execution_count": null,
   "id": "explicit-mercury",
   "metadata": {},
   "outputs": [],
   "source": []
  },
  {
   "cell_type": "code",
   "execution_count": null,
   "id": "satisfactory-burst",
   "metadata": {},
   "outputs": [],
   "source": []
  },
  {
   "cell_type": "code",
   "execution_count": null,
   "id": "precise-absence",
   "metadata": {},
   "outputs": [],
   "source": []
  },
  {
   "cell_type": "code",
   "execution_count": null,
   "id": "referenced-knife",
   "metadata": {},
   "outputs": [],
   "source": []
  },
  {
   "cell_type": "code",
   "execution_count": null,
   "id": "negative-bhutan",
   "metadata": {},
   "outputs": [],
   "source": []
  },
  {
   "cell_type": "code",
   "execution_count": null,
   "id": "italic-battery",
   "metadata": {},
   "outputs": [],
   "source": []
  },
  {
   "cell_type": "code",
   "execution_count": null,
   "id": "dramatic-repeat",
   "metadata": {},
   "outputs": [],
   "source": []
  },
  {
   "cell_type": "code",
   "execution_count": null,
   "id": "diverse-sunday",
   "metadata": {},
   "outputs": [],
   "source": []
  },
  {
   "cell_type": "code",
   "execution_count": null,
   "id": "desirable-block",
   "metadata": {},
   "outputs": [],
   "source": []
  },
  {
   "cell_type": "code",
   "execution_count": null,
   "id": "respiratory-asset",
   "metadata": {},
   "outputs": [],
   "source": []
  },
  {
   "cell_type": "code",
   "execution_count": null,
   "id": "handed-health",
   "metadata": {},
   "outputs": [],
   "source": []
  },
  {
   "cell_type": "code",
   "execution_count": null,
   "id": "wrapped-terrorist",
   "metadata": {},
   "outputs": [],
   "source": []
  },
  {
   "cell_type": "code",
   "execution_count": null,
   "id": "worthy-cheese",
   "metadata": {},
   "outputs": [],
   "source": []
  },
  {
   "cell_type": "code",
   "execution_count": null,
   "id": "comic-object",
   "metadata": {},
   "outputs": [],
   "source": []
  },
  {
   "cell_type": "code",
   "execution_count": null,
   "id": "obvious-reverse",
   "metadata": {},
   "outputs": [],
   "source": []
  },
  {
   "cell_type": "code",
   "execution_count": null,
   "id": "chubby-pension",
   "metadata": {},
   "outputs": [],
   "source": []
  },
  {
   "cell_type": "code",
   "execution_count": null,
   "id": "fiscal-schema",
   "metadata": {},
   "outputs": [],
   "source": []
  },
  {
   "cell_type": "code",
   "execution_count": null,
   "id": "paperback-alliance",
   "metadata": {},
   "outputs": [],
   "source": []
  },
  {
   "cell_type": "code",
   "execution_count": null,
   "id": "mathematical-portuguese",
   "metadata": {},
   "outputs": [],
   "source": []
  },
  {
   "cell_type": "code",
   "execution_count": null,
   "id": "double-helen",
   "metadata": {},
   "outputs": [],
   "source": []
  },
  {
   "cell_type": "code",
   "execution_count": null,
   "id": "necessary-comparative",
   "metadata": {},
   "outputs": [],
   "source": []
  },
  {
   "cell_type": "code",
   "execution_count": null,
   "id": "weird-kitty",
   "metadata": {},
   "outputs": [],
   "source": []
  },
  {
   "cell_type": "code",
   "execution_count": null,
   "id": "romance-charleston",
   "metadata": {},
   "outputs": [],
   "source": []
  },
  {
   "cell_type": "code",
   "execution_count": null,
   "id": "consecutive-account",
   "metadata": {},
   "outputs": [],
   "source": []
  },
  {
   "cell_type": "code",
   "execution_count": null,
   "id": "understood-vertical",
   "metadata": {},
   "outputs": [],
   "source": []
  },
  {
   "cell_type": "code",
   "execution_count": null,
   "id": "eligible-people",
   "metadata": {},
   "outputs": [],
   "source": []
  },
  {
   "cell_type": "code",
   "execution_count": null,
   "id": "placed-kelly",
   "metadata": {},
   "outputs": [],
   "source": []
  },
  {
   "cell_type": "code",
   "execution_count": null,
   "id": "collected-milton",
   "metadata": {},
   "outputs": [],
   "source": []
  },
  {
   "cell_type": "code",
   "execution_count": null,
   "id": "heard-homeless",
   "metadata": {},
   "outputs": [],
   "source": []
  },
  {
   "cell_type": "code",
   "execution_count": null,
   "id": "young-helmet",
   "metadata": {},
   "outputs": [],
   "source": []
  },
  {
   "cell_type": "code",
   "execution_count": null,
   "id": "square-pepper",
   "metadata": {},
   "outputs": [],
   "source": []
  },
  {
   "cell_type": "code",
   "execution_count": null,
   "id": "geographic-kernel",
   "metadata": {},
   "outputs": [],
   "source": [
    "\n"
   ]
  }
 ],
 "metadata": {
  "kernelspec": {
   "display_name": "Python 3",
   "language": "python",
   "name": "python3"
  },
  "language_info": {
   "codemirror_mode": {
    "name": "ipython",
    "version": 3
   },
   "file_extension": ".py",
   "mimetype": "text/x-python",
   "name": "python",
   "nbconvert_exporter": "python",
   "pygments_lexer": "ipython3",
   "version": "3.8.5"
  }
 },
 "nbformat": 4,
 "nbformat_minor": 5
}
