{
 "cells": [
  {
   "cell_type": "code",
   "execution_count": 5,
   "id": "listed-terminal",
   "metadata": {},
   "outputs": [],
   "source": [
    "import time\n",
    "from web3 import Web3, HTTPProvider"
   ]
  },
  {
   "cell_type": "code",
   "execution_count": 6,
   "id": "decent-thanksgiving",
   "metadata": {},
   "outputs": [],
   "source": [
    "contract_address=\"0x3581642e64a092f3bdce0b6469a643e770e25737\"\n",
    "wallet_private_key=\"d5221ee3b3f0595a6eda712d5cbed1181a73d550474b2c9240cb19cab35e6634\"\n",
    "wallet_address=\"0x98aafc122f94f2f7d808d81dc943b18b55eec5a2\"\n",
    "url=\"https://ropsten.infura.io/v3/797f0db7164f4709ab71797981eb76e5\"\n",
    "\n",
    "w3=Web3(HTTPProvider(url))"
   ]
  },
  {
   "cell_type": "code",
   "execution_count": 7,
   "id": "precious-sally",
   "metadata": {},
   "outputs": [
    {
     "data": {
      "text/plain": [
       "True"
      ]
     },
     "execution_count": 7,
     "metadata": {},
     "output_type": "execute_result"
    }
   ],
   "source": [
    "w3.isConnected()"
   ]
  },
  {
   "cell_type": "code",
   "execution_count": 36,
   "id": "packed-tablet",
   "metadata": {},
   "outputs": [],
   "source": [
    "def send_ether_to_contract(amount_in_ether):\n",
    "    amount_in_wei=w3.toWei(amount_in_ether,'ether')\n",
    "    nonce=10\n",
    "    txn= {\n",
    "            'to': '0xE1096C6db7E8E8F0fDc94B2BD0f593dBB84D020A',\n",
    "            'value': amount_in_wei,\n",
    "            'gas': 2000000,\n",
    "            'gasPrice': w3.toWei('100', 'gwei'),\n",
    "            'nonce': 12323,\n",
    "            'chainId': 3\n",
    "    }\n",
    "    \n",
    "    signed_tx=w3.eth.account.sign_transaction(txn,wallet_private_key)\n",
    "    tx_hash=w3.eth.send_raw_transaction(signed_tx.rawTransaction)\n",
    "    return signed_tx,tx_hash\n",
    "    txn_receipt = None\n",
    "    count = 0\n",
    "    while txn_receipt is None and (count < 30):\n",
    "        txn_receipt = w3.eth.getTransactionReceipt(tx_hash)\n",
    "        print(txn_receipt)\n",
    "        time.sleep(10)\n",
    "\n",
    "    if txn_receipt is None:\n",
    "        return {'status': 'failed', 'error': 'timeout'}\n",
    "\n",
    "    return {'status': 'added', 'txn_receipt': txn_receipt}"
   ]
  },
  {
   "cell_type": "code",
   "execution_count": 37,
   "id": "divided-treatment",
   "metadata": {},
   "outputs": [],
   "source": [
    "a,b=send_ether_to_contract(0.01)"
   ]
  },
  {
   "cell_type": "code",
   "execution_count": 38,
   "id": "dressed-virtue",
   "metadata": {},
   "outputs": [
    {
     "data": {
      "text/plain": [
       "SignedTransaction(rawTransaction=HexBytes('0xf86e82302385174876e800831e848094e1096c6db7e8e8f0fdc94b2bd0f593dbb84d020a872386f26fc100008029a0eb07f6ee05289583e97412383f6acd68a4ee3068c4f74c0f62c5356e89bbe549a01fc24dfbd533bff3829113a74ca051f39b2b112ba886ff1c275f887380009cc2'), hash=HexBytes('0x27777cceb395e0138b5bd986d62c488566271caa01d60e71d625deb666620595'), r=106307591593132923984291421512833260906504110543513782656431234221629622707529, s=14365004860516387689946617247554521498861679317724581076033120766607950388418, v=41)"
      ]
     },
     "execution_count": 38,
     "metadata": {},
     "output_type": "execute_result"
    }
   ],
   "source": [
    "a"
   ]
  },
  {
   "cell_type": "code",
   "execution_count": 40,
   "id": "electric-naples",
   "metadata": {},
   "outputs": [
    {
     "data": {
      "text/plain": [
       "HexBytes('0x27777cceb395e0138b5bd986d62c488566271caa01d60e71d625deb666620595')"
      ]
     },
     "execution_count": 40,
     "metadata": {},
     "output_type": "execute_result"
    }
   ],
   "source": [
    "b"
   ]
  },
  {
   "cell_type": "code",
   "execution_count": null,
   "id": "ancient-wallpaper",
   "metadata": {},
   "outputs": [],
   "source": []
  },
  {
   "cell_type": "code",
   "execution_count": null,
   "id": "connected-liabilities",
   "metadata": {},
   "outputs": [],
   "source": []
  },
  {
   "cell_type": "code",
   "execution_count": null,
   "id": "korean-rental",
   "metadata": {},
   "outputs": [],
   "source": []
  },
  {
   "cell_type": "code",
   "execution_count": null,
   "id": "changed-values",
   "metadata": {},
   "outputs": [],
   "source": []
  },
  {
   "cell_type": "code",
   "execution_count": null,
   "id": "greek-ending",
   "metadata": {},
   "outputs": [],
   "source": []
  },
  {
   "cell_type": "code",
   "execution_count": null,
   "id": "honey-binary",
   "metadata": {},
   "outputs": [],
   "source": []
  },
  {
   "cell_type": "code",
   "execution_count": null,
   "id": "spread-setting",
   "metadata": {},
   "outputs": [],
   "source": []
  },
  {
   "cell_type": "code",
   "execution_count": null,
   "id": "premium-workshop",
   "metadata": {},
   "outputs": [],
   "source": []
  },
  {
   "cell_type": "code",
   "execution_count": null,
   "id": "pressing-legislature",
   "metadata": {},
   "outputs": [],
   "source": []
  },
  {
   "cell_type": "code",
   "execution_count": null,
   "id": "fleet-helmet",
   "metadata": {},
   "outputs": [],
   "source": []
  },
  {
   "cell_type": "code",
   "execution_count": null,
   "id": "chemical-thomson",
   "metadata": {},
   "outputs": [],
   "source": []
  },
  {
   "cell_type": "code",
   "execution_count": null,
   "id": "several-arnold",
   "metadata": {},
   "outputs": [],
   "source": []
  },
  {
   "cell_type": "code",
   "execution_count": null,
   "id": "contained-external",
   "metadata": {},
   "outputs": [],
   "source": []
  },
  {
   "cell_type": "code",
   "execution_count": null,
   "id": "comparative-habitat",
   "metadata": {},
   "outputs": [],
   "source": []
  },
  {
   "cell_type": "code",
   "execution_count": null,
   "id": "instrumental-packet",
   "metadata": {},
   "outputs": [],
   "source": []
  },
  {
   "cell_type": "code",
   "execution_count": null,
   "id": "functioning-primary",
   "metadata": {},
   "outputs": [],
   "source": []
  },
  {
   "cell_type": "code",
   "execution_count": 26,
   "id": "blond-blues",
   "metadata": {},
   "outputs": [
    {
     "data": {
      "text/plain": [
       "10000000000000"
      ]
     },
     "execution_count": 26,
     "metadata": {},
     "output_type": "execute_result"
    }
   ],
   "source": [
    "w3.toWei('10000', 'gwei')"
   ]
  },
  {
   "cell_type": "code",
   "execution_count": null,
   "id": "formed-celtic",
   "metadata": {},
   "outputs": [],
   "source": []
  },
  {
   "cell_type": "code",
   "execution_count": 13,
   "id": "rotary-director",
   "metadata": {},
   "outputs": [],
   "source": [
    "# w3.eth.getTransactionReceipt(a)"
   ]
  },
  {
   "cell_type": "code",
   "execution_count": null,
   "id": "moving-participant",
   "metadata": {},
   "outputs": [],
   "source": [
    "txn_receipt = None\n",
    "count = 0\n",
    "while txn_receipt is None and (count < 30):\n",
    "    txn_receipt = w3.eth.getTransactionReceipt(tx_hash)\n",
    "    print(txn_receipt)\n",
    "    time.sleep(10)\n",
    "\n",
    "if txn_receipt is None:\n",
    "    return {'status': 'failed', 'error': 'timeout'}\n",
    "\n",
    "return {'status': 'added', 'txn_receipt': txn_receipt}"
   ]
  },
  {
   "cell_type": "code",
   "execution_count": 12,
   "id": "medical-miniature",
   "metadata": {},
   "outputs": [],
   "source": [
    "# a=send_ether_to_contract(0.01)"
   ]
  },
  {
   "cell_type": "code",
   "execution_count": null,
   "id": "opposite-motel",
   "metadata": {},
   "outputs": [],
   "source": [
    "a"
   ]
  },
  {
   "cell_type": "code",
   "execution_count": null,
   "id": "egyptian-tuesday",
   "metadata": {},
   "outputs": [],
   "source": [
    "b"
   ]
  },
  {
   "cell_type": "code",
   "execution_count": null,
   "id": "stuffed-adaptation",
   "metadata": {},
   "outputs": [],
   "source": [
    "w3.eth.getTransaction('0xa5b145b6e43d0d58647cc02e22992c02e4311cf2bf7d5aa51ad500dc22c5c4bf')"
   ]
  },
  {
   "cell_type": "code",
   "execution_count": null,
   "id": "turned-origin",
   "metadata": {},
   "outputs": [],
   "source": [
    "w3.eth.getTransactionCount('0xE1096C6db7E8E8F0fDc94B2BD0f593dBB84D020A')"
   ]
  },
  {
   "cell_type": "code",
   "execution_count": null,
   "id": "higher-spider",
   "metadata": {},
   "outputs": [],
   "source": [
    "w3.eth.getTransactionCount('0x98aaFC122f94f2f7d808d81dC943B18b55EEC5a2')"
   ]
  },
  {
   "cell_type": "code",
   "execution_count": null,
   "id": "finished-nutrition",
   "metadata": {},
   "outputs": [],
   "source": []
  },
  {
   "cell_type": "code",
   "execution_count": null,
   "id": "settled-distributor",
   "metadata": {},
   "outputs": [],
   "source": []
  },
  {
   "cell_type": "code",
   "execution_count": null,
   "id": "competitive-insertion",
   "metadata": {},
   "outputs": [],
   "source": []
  },
  {
   "cell_type": "code",
   "execution_count": null,
   "id": "curious-breast",
   "metadata": {},
   "outputs": [],
   "source": []
  },
  {
   "cell_type": "code",
   "execution_count": null,
   "id": "elementary-invitation",
   "metadata": {},
   "outputs": [],
   "source": []
  },
  {
   "cell_type": "code",
   "execution_count": null,
   "id": "pressed-titanium",
   "metadata": {},
   "outputs": [],
   "source": []
  },
  {
   "cell_type": "code",
   "execution_count": null,
   "id": "split-ceramic",
   "metadata": {},
   "outputs": [],
   "source": []
  },
  {
   "cell_type": "code",
   "execution_count": null,
   "id": "moderate-offer",
   "metadata": {},
   "outputs": [],
   "source": []
  },
  {
   "cell_type": "code",
   "execution_count": null,
   "id": "psychological-montana",
   "metadata": {},
   "outputs": [],
   "source": []
  },
  {
   "cell_type": "code",
   "execution_count": null,
   "id": "basic-gender",
   "metadata": {},
   "outputs": [],
   "source": []
  },
  {
   "cell_type": "code",
   "execution_count": null,
   "id": "unable-broadway",
   "metadata": {},
   "outputs": [],
   "source": []
  },
  {
   "cell_type": "code",
   "execution_count": null,
   "id": "catholic-promotion",
   "metadata": {},
   "outputs": [],
   "source": []
  },
  {
   "cell_type": "code",
   "execution_count": null,
   "id": "communist-frame",
   "metadata": {},
   "outputs": [],
   "source": []
  },
  {
   "cell_type": "code",
   "execution_count": null,
   "id": "african-range",
   "metadata": {},
   "outputs": [],
   "source": []
  },
  {
   "cell_type": "code",
   "execution_count": null,
   "id": "yellow-explorer",
   "metadata": {},
   "outputs": [],
   "source": []
  },
  {
   "cell_type": "code",
   "execution_count": null,
   "id": "handmade-hostel",
   "metadata": {},
   "outputs": [],
   "source": []
  },
  {
   "cell_type": "code",
   "execution_count": null,
   "id": "convertible-software",
   "metadata": {},
   "outputs": [],
   "source": []
  },
  {
   "cell_type": "code",
   "execution_count": null,
   "id": "reflected-taiwan",
   "metadata": {},
   "outputs": [],
   "source": []
  },
  {
   "cell_type": "code",
   "execution_count": null,
   "id": "permanent-colon",
   "metadata": {},
   "outputs": [],
   "source": []
  },
  {
   "cell_type": "code",
   "execution_count": null,
   "id": "beautiful-spain",
   "metadata": {},
   "outputs": [],
   "source": []
  },
  {
   "cell_type": "code",
   "execution_count": null,
   "id": "first-binding",
   "metadata": {},
   "outputs": [],
   "source": []
  },
  {
   "cell_type": "code",
   "execution_count": null,
   "id": "fantastic-campus",
   "metadata": {},
   "outputs": [],
   "source": []
  },
  {
   "cell_type": "code",
   "execution_count": null,
   "id": "empirical-reconstruction",
   "metadata": {},
   "outputs": [],
   "source": []
  },
  {
   "cell_type": "code",
   "execution_count": null,
   "id": "cooperative-kazakhstan",
   "metadata": {},
   "outputs": [],
   "source": []
  },
  {
   "cell_type": "code",
   "execution_count": null,
   "id": "retired-recruitment",
   "metadata": {},
   "outputs": [],
   "source": []
  },
  {
   "cell_type": "code",
   "execution_count": null,
   "id": "inappropriate-whole",
   "metadata": {},
   "outputs": [],
   "source": []
  },
  {
   "cell_type": "code",
   "execution_count": null,
   "id": "round-roman",
   "metadata": {},
   "outputs": [],
   "source": []
  },
  {
   "cell_type": "code",
   "execution_count": null,
   "id": "secret-bradford",
   "metadata": {},
   "outputs": [],
   "source": []
  },
  {
   "cell_type": "code",
   "execution_count": null,
   "id": "guilty-stanford",
   "metadata": {},
   "outputs": [],
   "source": []
  },
  {
   "cell_type": "code",
   "execution_count": null,
   "id": "unavailable-peninsula",
   "metadata": {},
   "outputs": [],
   "source": []
  },
  {
   "cell_type": "code",
   "execution_count": null,
   "id": "enhanced-communist",
   "metadata": {},
   "outputs": [],
   "source": []
  },
  {
   "cell_type": "code",
   "execution_count": null,
   "id": "thermal-progress",
   "metadata": {},
   "outputs": [],
   "source": []
  },
  {
   "cell_type": "code",
   "execution_count": null,
   "id": "decent-mechanics",
   "metadata": {},
   "outputs": [],
   "source": []
  },
  {
   "cell_type": "code",
   "execution_count": null,
   "id": "cleared-entity",
   "metadata": {},
   "outputs": [],
   "source": []
  },
  {
   "cell_type": "code",
   "execution_count": null,
   "id": "scheduled-wealth",
   "metadata": {},
   "outputs": [],
   "source": []
  },
  {
   "cell_type": "code",
   "execution_count": null,
   "id": "lucky-roller",
   "metadata": {},
   "outputs": [],
   "source": []
  },
  {
   "cell_type": "code",
   "execution_count": null,
   "id": "insured-compilation",
   "metadata": {},
   "outputs": [],
   "source": []
  },
  {
   "cell_type": "code",
   "execution_count": null,
   "id": "exceptional-bloom",
   "metadata": {},
   "outputs": [],
   "source": []
  },
  {
   "cell_type": "code",
   "execution_count": null,
   "id": "fifth-thread",
   "metadata": {},
   "outputs": [],
   "source": []
  },
  {
   "cell_type": "code",
   "execution_count": null,
   "id": "selected-interstate",
   "metadata": {},
   "outputs": [],
   "source": []
  },
  {
   "cell_type": "code",
   "execution_count": null,
   "id": "subject-glossary",
   "metadata": {},
   "outputs": [],
   "source": [
    "\n"
   ]
  }
 ],
 "metadata": {
  "kernelspec": {
   "display_name": "Python 3",
   "language": "python",
   "name": "python3"
  },
  "language_info": {
   "codemirror_mode": {
    "name": "ipython",
    "version": 3
   },
   "file_extension": ".py",
   "mimetype": "text/x-python",
   "name": "python",
   "nbconvert_exporter": "python",
   "pygments_lexer": "ipython3",
   "version": "3.8.5"
  }
 },
 "nbformat": 4,
 "nbformat_minor": 5
}
