{
 "cells": [
  {
   "cell_type": "code",
   "execution_count": 3,
   "id": "renewable-chicken",
   "metadata": {},
   "outputs": [],
   "source": [
    "from web3 import Web3\n"
   ]
  },
  {
   "cell_type": "code",
   "execution_count": 4,
   "id": "neither-climb",
   "metadata": {},
   "outputs": [
    {
     "data": {
      "text/plain": [
       "<web3.main.Web3 at 0x7f3a81cbaa00>"
      ]
     },
     "execution_count": 4,
     "metadata": {},
     "output_type": "execute_result"
    }
   ],
   "source": [
    "# url=\"https://ropsten.infura.io/v3/797f0db7164f4709ab71797981eb76e5\"\n",
    "# url=\"http://127.0.0.1:7545\"\n",
    "url=\"https://rinkeby.infura.io/v3/797f0db7164f4709ab71797981eb76e5\"\n",
    "web3=Web3(Web3.HTTPProvider(url))\n",
    "# web3=Web3.providers.HttpProvider(url)\n",
    "web3"
   ]
  },
  {
   "cell_type": "code",
   "execution_count": 5,
   "id": "falling-appreciation",
   "metadata": {},
   "outputs": [
    {
     "data": {
      "text/plain": [
       "True"
      ]
     },
     "execution_count": 5,
     "metadata": {},
     "output_type": "execute_result"
    }
   ],
   "source": [
    "web3.isConnected()"
   ]
  },
  {
   "cell_type": "code",
   "execution_count": 11,
   "id": "unusual-hampshire",
   "metadata": {},
   "outputs": [],
   "source": [
    "account_from=\"0x98aaFC122f94f2f7d808d81dC943B18b55EEC5a2\"\n",
    "account_to=\"0xE1096C6db7E8E8F0fDc94B2BD0f593dBB84D020A\"\n",
    "\n",
    "# account_from=\"0xf197a007f8739dAA325BF8c18Ee7ebA94365cD50\"\n",
    "# account_to=\"0xB16A23c270a21Ce5309306948E623e688E2001F3\""
   ]
  },
  {
   "cell_type": "code",
   "execution_count": 12,
   "id": "primary-screw",
   "metadata": {},
   "outputs": [],
   "source": [
    "# private_key=\"1a7f9e901e9a8feaa665d7bcdbac9788b5ee8f84c4b94866dc74959647c3d108\"\n",
    "private_key=\"d5221ee3b3f0595a6eda712d5cbed1181a73d550474b2c9240cb19cab35e6634\""
   ]
  },
  {
   "cell_type": "code",
   "execution_count": 10,
   "id": "suspected-flower",
   "metadata": {},
   "outputs": [
    {
     "data": {
      "text/plain": [
       "0"
      ]
     },
     "execution_count": 10,
     "metadata": {},
     "output_type": "execute_result"
    }
   ],
   "source": [
    "nonce=web3.eth.getTransactionCount(account_to)\n",
    "nonce"
   ]
  },
  {
   "cell_type": "code",
   "execution_count": 13,
   "id": "internal-affiliate",
   "metadata": {},
   "outputs": [],
   "source": [
    "tx={\n",
    "    'nonce':nonce,\n",
    "    'to':account_to,\n",
    "    'value':web3.toWei(1,'ether'),\n",
    "    'gas':2000000,\n",
    "    'gasPrice':web3.toWei('1','gwei')\n",
    "}"
   ]
  },
  {
   "cell_type": "code",
   "execution_count": 14,
   "id": "elder-istanbul",
   "metadata": {},
   "outputs": [],
   "source": [
    "signed_tx=web3.eth.account.signTransaction(tx,private_key)"
   ]
  },
  {
   "cell_type": "code",
   "execution_count": 15,
   "id": "appreciated-broad",
   "metadata": {},
   "outputs": [],
   "source": [
    "tx_hash=web3.eth.sendRawTransaction(signed_tx.rawTransaction)"
   ]
  },
  {
   "cell_type": "code",
   "execution_count": 16,
   "id": "closed-trauma",
   "metadata": {},
   "outputs": [
    {
     "data": {
      "text/plain": [
       "HexBytes('0xf86c80843b9aca00831e848094e1096c6db7e8e8f0fdc94b2bd0f593dbb84d020a880de0b6b3a7640000801ca044459f02939be6c173f781568036c7ab2dfe6149c533919168de8d590e59ff0ea074e76d63635e462e5e1e2b3a98ae1a1b28273c031b0f1048b031517aa08bcb3f')"
      ]
     },
     "execution_count": 16,
     "metadata": {},
     "output_type": "execute_result"
    }
   ],
   "source": [
    "signed_tx.rawTransaction"
   ]
  },
  {
   "cell_type": "code",
   "execution_count": null,
   "id": "recorded-swedish",
   "metadata": {},
   "outputs": [],
   "source": []
  },
  {
   "cell_type": "code",
   "execution_count": null,
   "id": "reliable-marking",
   "metadata": {
    "scrolled": false
   },
   "outputs": [],
   "source": []
  },
  {
   "cell_type": "code",
   "execution_count": null,
   "id": "facial-italian",
   "metadata": {},
   "outputs": [],
   "source": []
  },
  {
   "cell_type": "code",
   "execution_count": null,
   "id": "speaking-vienna",
   "metadata": {},
   "outputs": [],
   "source": []
  },
  {
   "cell_type": "code",
   "execution_count": null,
   "id": "agricultural-animal",
   "metadata": {},
   "outputs": [],
   "source": []
  },
  {
   "cell_type": "code",
   "execution_count": null,
   "id": "numeric-pricing",
   "metadata": {},
   "outputs": [],
   "source": []
  },
  {
   "cell_type": "code",
   "execution_count": null,
   "id": "quantitative-opinion",
   "metadata": {},
   "outputs": [],
   "source": []
  },
  {
   "cell_type": "code",
   "execution_count": null,
   "id": "billion-nepal",
   "metadata": {},
   "outputs": [],
   "source": []
  },
  {
   "cell_type": "code",
   "execution_count": null,
   "id": "south-madagascar",
   "metadata": {},
   "outputs": [],
   "source": []
  },
  {
   "cell_type": "code",
   "execution_count": null,
   "id": "otherwise-stock",
   "metadata": {},
   "outputs": [],
   "source": []
  },
  {
   "cell_type": "code",
   "execution_count": null,
   "id": "mysterious-litigation",
   "metadata": {},
   "outputs": [],
   "source": []
  },
  {
   "cell_type": "code",
   "execution_count": null,
   "id": "great-skating",
   "metadata": {},
   "outputs": [],
   "source": []
  },
  {
   "cell_type": "code",
   "execution_count": null,
   "id": "varied-minority",
   "metadata": {},
   "outputs": [],
   "source": []
  },
  {
   "cell_type": "code",
   "execution_count": null,
   "id": "living-applicant",
   "metadata": {},
   "outputs": [],
   "source": []
  },
  {
   "cell_type": "code",
   "execution_count": null,
   "id": "growing-chamber",
   "metadata": {},
   "outputs": [],
   "source": []
  },
  {
   "cell_type": "code",
   "execution_count": null,
   "id": "advisory-shopping",
   "metadata": {},
   "outputs": [],
   "source": []
  },
  {
   "cell_type": "code",
   "execution_count": null,
   "id": "later-stress",
   "metadata": {},
   "outputs": [],
   "source": []
  },
  {
   "cell_type": "code",
   "execution_count": null,
   "id": "champion-thunder",
   "metadata": {},
   "outputs": [],
   "source": []
  },
  {
   "cell_type": "code",
   "execution_count": null,
   "id": "historical-judgment",
   "metadata": {},
   "outputs": [],
   "source": []
  },
  {
   "cell_type": "code",
   "execution_count": null,
   "id": "elegant-intensity",
   "metadata": {},
   "outputs": [],
   "source": []
  },
  {
   "cell_type": "code",
   "execution_count": null,
   "id": "collaborative-slave",
   "metadata": {},
   "outputs": [],
   "source": []
  },
  {
   "cell_type": "code",
   "execution_count": null,
   "id": "annual-plaintiff",
   "metadata": {},
   "outputs": [],
   "source": []
  },
  {
   "cell_type": "code",
   "execution_count": null,
   "id": "hungry-automation",
   "metadata": {},
   "outputs": [],
   "source": []
  },
  {
   "cell_type": "code",
   "execution_count": null,
   "id": "native-boards",
   "metadata": {},
   "outputs": [],
   "source": []
  },
  {
   "cell_type": "code",
   "execution_count": null,
   "id": "swiss-allocation",
   "metadata": {},
   "outputs": [],
   "source": []
  },
  {
   "cell_type": "code",
   "execution_count": null,
   "id": "diagnostic-navigation",
   "metadata": {},
   "outputs": [],
   "source": []
  },
  {
   "cell_type": "code",
   "execution_count": null,
   "id": "herbal-italic",
   "metadata": {},
   "outputs": [],
   "source": []
  },
  {
   "cell_type": "code",
   "execution_count": null,
   "id": "compact-cologne",
   "metadata": {},
   "outputs": [],
   "source": []
  },
  {
   "cell_type": "code",
   "execution_count": null,
   "id": "upper-prince",
   "metadata": {},
   "outputs": [],
   "source": []
  },
  {
   "cell_type": "code",
   "execution_count": null,
   "id": "supported-principle",
   "metadata": {},
   "outputs": [],
   "source": []
  },
  {
   "cell_type": "code",
   "execution_count": null,
   "id": "conventional-health",
   "metadata": {},
   "outputs": [],
   "source": []
  },
  {
   "cell_type": "code",
   "execution_count": null,
   "id": "worse-things",
   "metadata": {},
   "outputs": [],
   "source": []
  },
  {
   "cell_type": "code",
   "execution_count": null,
   "id": "genuine-repository",
   "metadata": {},
   "outputs": [],
   "source": []
  },
  {
   "cell_type": "code",
   "execution_count": null,
   "id": "natural-module",
   "metadata": {},
   "outputs": [],
   "source": []
  }
 ],
 "metadata": {
  "kernelspec": {
   "display_name": "Python 3",
   "language": "python",
   "name": "python3"
  },
  "language_info": {
   "codemirror_mode": {
    "name": "ipython",
    "version": 3
   },
   "file_extension": ".py",
   "mimetype": "text/x-python",
   "name": "python",
   "nbconvert_exporter": "python",
   "pygments_lexer": "ipython3",
   "version": "3.8.5"
  }
 },
 "nbformat": 4,
 "nbformat_minor": 5
}
