{
 "cells": [
  {
   "cell_type": "code",
   "execution_count": 83,
   "id": "renewable-chicken",
   "metadata": {},
   "outputs": [],
   "source": [
    "from web3 import Web3\n",
    "import numpy as np"
   ]
  },
  {
   "cell_type": "code",
   "execution_count": 84,
   "id": "neither-climb",
   "metadata": {},
   "outputs": [
    {
     "data": {
      "text/plain": [
       "<web3.main.Web3 at 0x7f7cf8b9e940>"
      ]
     },
     "execution_count": 84,
     "metadata": {},
     "output_type": "execute_result"
    }
   ],
   "source": [
    "# url=\"https://ropsten.infura.io/v3/797f0db7164f4709ab71797981eb76e5\"\n",
    "# url=\"http://127.0.0.1:7545\"\n",
    "url=\"https://rinkeby.infura.io/v3/797f0db7164f4709ab71797981eb76e5\"\n",
    "web3=Web3(Web3.HTTPProvider(url))\n",
    "# web3=Web3.providers.HttpProvider(url)\n",
    "web3"
   ]
  },
  {
   "cell_type": "code",
   "execution_count": 85,
   "id": "falling-appreciation",
   "metadata": {},
   "outputs": [
    {
     "data": {
      "text/plain": [
       "True"
      ]
     },
     "execution_count": 85,
     "metadata": {},
     "output_type": "execute_result"
    }
   ],
   "source": [
    "web3.isConnected()"
   ]
  },
  {
   "cell_type": "code",
   "execution_count": 86,
   "id": "unusual-hampshire",
   "metadata": {},
   "outputs": [],
   "source": [
    "account_from=\"0x98aaFC122f94f2f7d808d81dC943B18b55EEC5a2\"\n",
    "account_to=\"0xE1096C6db7E8E8F0fDc94B2BD0f593dBB84D020A\"\n",
    "\n",
    "# account_from=\"0xf197a007f8739dAA325BF8c18Ee7ebA94365cD50\"\n",
    "# account_to=\"0xB16A23c270a21Ce5309306948E623e688E2001F3\""
   ]
  },
  {
   "cell_type": "code",
   "execution_count": 87,
   "id": "primary-screw",
   "metadata": {},
   "outputs": [],
   "source": [
    "# private_key=\"1a7f9e901e9a8feaa665d7bcdbac9788b5ee8f84c4b94866dc74959647c3d108\"\n",
    "private_key=\"d5221ee3b3f0595a6eda712d5cbed1181a73d550474b2c9240cb19cab35e6634\"\n",
    "\n",
    "# private_key=\"1a7f9e901e9a8feaa665d7bcdbac9788b5ee8f84c4b94866dc74959647c3d108\"\n"
   ]
  },
  {
   "cell_type": "code",
   "execution_count": 88,
   "id": "suspected-flower",
   "metadata": {},
   "outputs": [
    {
     "data": {
      "text/plain": [
       "7"
      ]
     },
     "execution_count": 88,
     "metadata": {},
     "output_type": "execute_result"
    }
   ],
   "source": [
    "nonce=np.random.randint(0,100)\n",
    "nonce"
   ]
  },
  {
   "cell_type": "code",
   "execution_count": 89,
   "id": "internal-affiliate",
   "metadata": {},
   "outputs": [],
   "source": [
    "tx={\n",
    "    'nonce':nonce,\n",
    "    'to':\"0x98aaFC122f94f2f7d808d81dC943B18b55EEC5a2\",\n",
    "    'value':web3.toWei(1,'ether'),\n",
    "    'gas':21000,\n",
    "    'gasPrice':web3.toWei('1','gwei')\n",
    "}"
   ]
  },
  {
   "cell_type": "code",
   "execution_count": 96,
   "id": "modified-companion",
   "metadata": {},
   "outputs": [],
   "source": [
    "transaction = {\n",
    "        'to':account_to,\n",
    "        'from': account_from,\n",
    "        'value': web3.toWei(1,'ether'),\n",
    "        'gas': 100000,\n",
    "        'gasPrice': web3.toWei('1','gwei'),  # W3.eth.gasPrice,\n",
    "        'nonce': 2\n",
    "    }"
   ]
  },
  {
   "cell_type": "code",
   "execution_count": 97,
   "id": "elder-istanbul",
   "metadata": {},
   "outputs": [],
   "source": [
    "signed_tx=web3.eth.account.signTransaction(transaction,private_key)"
   ]
  },
  {
   "cell_type": "code",
   "execution_count": 98,
   "id": "appreciated-broad",
   "metadata": {},
   "outputs": [],
   "source": [
    "tx_hash=web3.eth.sendRawTransaction(signed_tx.rawTransaction)"
   ]
  },
  {
   "cell_type": "code",
   "execution_count": 99,
   "id": "closed-trauma",
   "metadata": {},
   "outputs": [
    {
     "data": {
      "text/plain": [
       "HexBytes('0xf86c02843b9aca00830186a094e1096c6db7e8e8f0fdc94b2bd0f593dbb84d020a880de0b6b3a7640000801ba03642781f0823bfafeb5636bbc21b3cbac152fe710424735ef6ea9771953342b9a0115eb1bbc06acce5d95b429388cc176b8d87b02e70d3a81fc24b5d8423bdd6af')"
      ]
     },
     "execution_count": 99,
     "metadata": {},
     "output_type": "execute_result"
    }
   ],
   "source": [
    "signed_tx.rawTransaction"
   ]
  },
  {
   "cell_type": "code",
   "execution_count": null,
   "id": "equipped-sunrise",
   "metadata": {},
   "outputs": [],
   "source": [
    "'0xf86e820336843b9aca00831e84809498aafc122f94f2f7d808d81dc943b18b55eec5a2880de0b6b3a7640000801ca0269f1826df7cc12b493a0bfd3105c81c1ad311f93e8b7d699aa2fa585f522f9da02151a8564d11fd0230dc4955435ebec8524f23cdeacbf47de85bf6fe20bfb506'"
   ]
  },
  {
   "cell_type": "code",
   "execution_count": 100,
   "id": "recorded-swedish",
   "metadata": {},
   "outputs": [
    {
     "data": {
      "text/plain": [
       "AttributeDict({'blockHash': HexBytes('0x1b0771655dc3dcf54cee314b0a28f4e856e4a167b8d86185b150df81bc0fb316'),\n",
       " 'blockNumber': 8259440,\n",
       " 'from': '0x98aaFC122f94f2f7d808d81dC943B18b55EEC5a2',\n",
       " 'gas': 100000,\n",
       " 'gasPrice': 1000000000,\n",
       " 'hash': HexBytes('0xf8df2f4441f3dba6151a1fb7b6d2f4ba95dede6a26fa0b3279b1b6967e55beec'),\n",
       " 'input': '0x',\n",
       " 'nonce': 2,\n",
       " 'r': HexBytes('0x3642781f0823bfafeb5636bbc21b3cbac152fe710424735ef6ea9771953342b9'),\n",
       " 's': HexBytes('0x115eb1bbc06acce5d95b429388cc176b8d87b02e70d3a81fc24b5d8423bdd6af'),\n",
       " 'to': '0xE1096C6db7E8E8F0fDc94B2BD0f593dBB84D020A',\n",
       " 'transactionIndex': 11,\n",
       " 'type': '0x0',\n",
       " 'v': 27,\n",
       " 'value': 1000000000000000000})"
      ]
     },
     "execution_count": 100,
     "metadata": {},
     "output_type": "execute_result"
    }
   ],
   "source": [
    "web3.eth.getTransaction(tx_hash)"
   ]
  },
  {
   "cell_type": "code",
   "execution_count": 101,
   "id": "reliable-marking",
   "metadata": {
    "scrolled": false
   },
   "outputs": [
    {
     "data": {
      "text/plain": [
       "HexBytes('0xf8df2f4441f3dba6151a1fb7b6d2f4ba95dede6a26fa0b3279b1b6967e55beec')"
      ]
     },
     "execution_count": 101,
     "metadata": {},
     "output_type": "execute_result"
    }
   ],
   "source": [
    "tx_hash"
   ]
  },
  {
   "cell_type": "code",
   "execution_count": 102,
   "id": "facial-italian",
   "metadata": {},
   "outputs": [],
   "source": [
    "# vmware nonce 2\n",
    "# nonvmware nonce 4"
   ]
  },
  {
   "cell_type": "code",
   "execution_count": null,
   "id": "speaking-vienna",
   "metadata": {},
   "outputs": [],
   "source": []
  },
  {
   "cell_type": "code",
   "execution_count": null,
   "id": "agricultural-animal",
   "metadata": {},
   "outputs": [],
   "source": []
  },
  {
   "cell_type": "code",
   "execution_count": null,
   "id": "numeric-pricing",
   "metadata": {},
   "outputs": [],
   "source": []
  },
  {
   "cell_type": "code",
   "execution_count": null,
   "id": "quantitative-opinion",
   "metadata": {},
   "outputs": [],
   "source": []
  },
  {
   "cell_type": "code",
   "execution_count": null,
   "id": "billion-nepal",
   "metadata": {},
   "outputs": [],
   "source": []
  },
  {
   "cell_type": "code",
   "execution_count": null,
   "id": "south-madagascar",
   "metadata": {},
   "outputs": [],
   "source": []
  },
  {
   "cell_type": "code",
   "execution_count": null,
   "id": "otherwise-stock",
   "metadata": {},
   "outputs": [],
   "source": []
  },
  {
   "cell_type": "code",
   "execution_count": null,
   "id": "mysterious-litigation",
   "metadata": {},
   "outputs": [],
   "source": []
  },
  {
   "cell_type": "code",
   "execution_count": null,
   "id": "great-skating",
   "metadata": {},
   "outputs": [],
   "source": []
  },
  {
   "cell_type": "code",
   "execution_count": null,
   "id": "varied-minority",
   "metadata": {},
   "outputs": [],
   "source": []
  },
  {
   "cell_type": "code",
   "execution_count": null,
   "id": "living-applicant",
   "metadata": {},
   "outputs": [],
   "source": []
  },
  {
   "cell_type": "code",
   "execution_count": null,
   "id": "growing-chamber",
   "metadata": {},
   "outputs": [],
   "source": []
  },
  {
   "cell_type": "code",
   "execution_count": null,
   "id": "advisory-shopping",
   "metadata": {},
   "outputs": [],
   "source": []
  },
  {
   "cell_type": "code",
   "execution_count": null,
   "id": "later-stress",
   "metadata": {},
   "outputs": [],
   "source": []
  },
  {
   "cell_type": "code",
   "execution_count": null,
   "id": "champion-thunder",
   "metadata": {},
   "outputs": [],
   "source": []
  },
  {
   "cell_type": "code",
   "execution_count": null,
   "id": "historical-judgment",
   "metadata": {},
   "outputs": [],
   "source": []
  },
  {
   "cell_type": "code",
   "execution_count": null,
   "id": "elegant-intensity",
   "metadata": {},
   "outputs": [],
   "source": []
  },
  {
   "cell_type": "code",
   "execution_count": null,
   "id": "collaborative-slave",
   "metadata": {},
   "outputs": [],
   "source": []
  },
  {
   "cell_type": "code",
   "execution_count": null,
   "id": "annual-plaintiff",
   "metadata": {},
   "outputs": [],
   "source": []
  },
  {
   "cell_type": "code",
   "execution_count": null,
   "id": "hungry-automation",
   "metadata": {},
   "outputs": [],
   "source": []
  },
  {
   "cell_type": "code",
   "execution_count": null,
   "id": "native-boards",
   "metadata": {},
   "outputs": [],
   "source": []
  },
  {
   "cell_type": "code",
   "execution_count": null,
   "id": "swiss-allocation",
   "metadata": {},
   "outputs": [],
   "source": []
  },
  {
   "cell_type": "code",
   "execution_count": null,
   "id": "diagnostic-navigation",
   "metadata": {},
   "outputs": [],
   "source": []
  },
  {
   "cell_type": "code",
   "execution_count": null,
   "id": "herbal-italic",
   "metadata": {},
   "outputs": [],
   "source": []
  },
  {
   "cell_type": "code",
   "execution_count": null,
   "id": "compact-cologne",
   "metadata": {},
   "outputs": [],
   "source": []
  },
  {
   "cell_type": "code",
   "execution_count": null,
   "id": "upper-prince",
   "metadata": {},
   "outputs": [],
   "source": []
  },
  {
   "cell_type": "code",
   "execution_count": null,
   "id": "supported-principle",
   "metadata": {},
   "outputs": [],
   "source": []
  },
  {
   "cell_type": "code",
   "execution_count": null,
   "id": "conventional-health",
   "metadata": {},
   "outputs": [],
   "source": []
  },
  {
   "cell_type": "code",
   "execution_count": null,
   "id": "worse-things",
   "metadata": {},
   "outputs": [],
   "source": []
  },
  {
   "cell_type": "code",
   "execution_count": null,
   "id": "genuine-repository",
   "metadata": {},
   "outputs": [],
   "source": []
  },
  {
   "cell_type": "code",
   "execution_count": null,
   "id": "natural-module",
   "metadata": {},
   "outputs": [],
   "source": []
  }
 ],
 "metadata": {
  "kernelspec": {
   "display_name": "Python 3",
   "language": "python",
   "name": "python3"
  },
  "language_info": {
   "codemirror_mode": {
    "name": "ipython",
    "version": 3
   },
   "file_extension": ".py",
   "mimetype": "text/x-python",
   "name": "python",
   "nbconvert_exporter": "python",
   "pygments_lexer": "ipython3",
   "version": "3.8.5"
  }
 },
 "nbformat": 4,
 "nbformat_minor": 5
}
