{
 "cells": [
  {
   "cell_type": "code",
   "execution_count": 44,
   "id": "renewable-chicken",
   "metadata": {},
   "outputs": [],
   "source": [
    "from web3 import Web3\n",
    "from web3.providers import rp"
   ]
  },
  {
   "cell_type": "code",
   "execution_count": 85,
   "id": "neither-climb",
   "metadata": {},
   "outputs": [
    {
     "data": {
      "text/plain": [
       "<web3.main.Web3 at 0x7f608d8b88e0>"
      ]
     },
     "execution_count": 85,
     "metadata": {},
     "output_type": "execute_result"
    }
   ],
   "source": [
    "# url=\"https://ropsten.infura.io/v3/797f0db7164f4709ab71797981eb76e5\"\n",
    "url=\"http://127.0.0.1:7545\"\n",
    "\n",
    "web3=Web3(Web3.HTTPProvider(url))\n",
    "# web3=Web3.providers.HttpProvider(url)\n",
    "web3"
   ]
  },
  {
   "cell_type": "code",
   "execution_count": 86,
   "id": "falling-appreciation",
   "metadata": {},
   "outputs": [
    {
     "data": {
      "text/plain": [
       "True"
      ]
     },
     "execution_count": 86,
     "metadata": {},
     "output_type": "execute_result"
    }
   ],
   "source": [
    "web3.isConnected()"
   ]
  },
  {
   "cell_type": "code",
   "execution_count": 84,
   "id": "unusual-hampshire",
   "metadata": {},
   "outputs": [],
   "source": [
    "# account_from=\"0xE1096C6db7E8E8F0fDc94B2BD0f593dBB84D020A\"\n",
    "# account_to=\"0x98aaFC122f94f2f7d808d81dC943B18b55EEC5a2\"\n",
    "\n",
    "account_from=\"0xf197a007f8739dAA325BF8c18Ee7ebA94365cD50\"\n",
    "account_to=\"0xB16A23c270a21Ce5309306948E623e688E2001F3\""
   ]
  },
  {
   "cell_type": "code",
   "execution_count": 92,
   "id": "primary-screw",
   "metadata": {},
   "outputs": [],
   "source": [
    "# private_key=\"1a7f9e901e9a8feaa665d7bcdbac9788b5ee8f84c4b94866dc74959647c3d108\"\n",
    "private_key=\"e8bc7ce430b7d842ddc30156332255a55b4e4614cf9b19614dcb2f8e50c6ff83\""
   ]
  },
  {
   "cell_type": "code",
   "execution_count": 93,
   "id": "suspected-flower",
   "metadata": {},
   "outputs": [
    {
     "data": {
      "text/plain": [
       "2"
      ]
     },
     "execution_count": 93,
     "metadata": {},
     "output_type": "execute_result"
    }
   ],
   "source": [
    "nonce=web3.eth.getTransactionCount(account_from)\n",
    "nonce"
   ]
  },
  {
   "cell_type": "code",
   "execution_count": 95,
   "id": "internal-affiliate",
   "metadata": {},
   "outputs": [],
   "source": [
    "tx={\n",
    "    'nonce':nonce,\n",
    "    'to':account_to,\n",
    "    'value':web3.toWei(1,'ether'),\n",
    "    'gas':2000000,\n",
    "    'gasPrice':web3.toWei('1','gwei')\n",
    "}"
   ]
  },
  {
   "cell_type": "code",
   "execution_count": 96,
   "id": "elder-istanbul",
   "metadata": {},
   "outputs": [],
   "source": [
    "signed_tx=web3.eth.account.signTransaction(tx,private_key)"
   ]
  },
  {
   "cell_type": "code",
   "execution_count": 97,
   "id": "appreciated-broad",
   "metadata": {},
   "outputs": [],
   "source": [
    "tx_hash=web3.eth.sendRawTransaction(signed_tx.rawTransaction)"
   ]
  },
  {
   "cell_type": "code",
   "execution_count": 98,
   "id": "closed-trauma",
   "metadata": {},
   "outputs": [
    {
     "data": {
      "text/plain": [
       "HexBytes('0xf86c02843b9aca00831e848094b16a23c270a21ce5309306948e623e688e2001f3880de0b6b3a7640000801ca09b5a7ce633d39c9891dff5766d779df8ca3ac5331bb3f2de362909f28312f67fa015d4b23e0be4542d2a95193b5fec08c9318edf67bec63ba1af87524a513c5e9f')"
      ]
     },
     "execution_count": 98,
     "metadata": {},
     "output_type": "execute_result"
    }
   ],
   "source": [
    "signed_tx.rawTransaction"
   ]
  },
  {
   "cell_type": "code",
   "execution_count": null,
   "id": "recorded-swedish",
   "metadata": {},
   "outputs": [],
   "source": []
  },
  {
   "cell_type": "code",
   "execution_count": null,
   "id": "reliable-marking",
   "metadata": {
    "scrolled": false
   },
   "outputs": [],
   "source": []
  },
  {
   "cell_type": "code",
   "execution_count": null,
   "id": "facial-italian",
   "metadata": {},
   "outputs": [],
   "source": []
  },
  {
   "cell_type": "code",
   "execution_count": null,
   "id": "speaking-vienna",
   "metadata": {},
   "outputs": [],
   "source": []
  },
  {
   "cell_type": "code",
   "execution_count": null,
   "id": "agricultural-animal",
   "metadata": {},
   "outputs": [],
   "source": []
  },
  {
   "cell_type": "code",
   "execution_count": null,
   "id": "numeric-pricing",
   "metadata": {},
   "outputs": [],
   "source": []
  },
  {
   "cell_type": "code",
   "execution_count": null,
   "id": "quantitative-opinion",
   "metadata": {},
   "outputs": [],
   "source": []
  },
  {
   "cell_type": "code",
   "execution_count": null,
   "id": "billion-nepal",
   "metadata": {},
   "outputs": [],
   "source": []
  },
  {
   "cell_type": "code",
   "execution_count": null,
   "id": "south-madagascar",
   "metadata": {},
   "outputs": [],
   "source": []
  },
  {
   "cell_type": "code",
   "execution_count": null,
   "id": "otherwise-stock",
   "metadata": {},
   "outputs": [],
   "source": []
  },
  {
   "cell_type": "code",
   "execution_count": null,
   "id": "mysterious-litigation",
   "metadata": {},
   "outputs": [],
   "source": []
  },
  {
   "cell_type": "code",
   "execution_count": null,
   "id": "great-skating",
   "metadata": {},
   "outputs": [],
   "source": []
  },
  {
   "cell_type": "code",
   "execution_count": null,
   "id": "varied-minority",
   "metadata": {},
   "outputs": [],
   "source": []
  },
  {
   "cell_type": "code",
   "execution_count": null,
   "id": "living-applicant",
   "metadata": {},
   "outputs": [],
   "source": []
  },
  {
   "cell_type": "code",
   "execution_count": null,
   "id": "growing-chamber",
   "metadata": {},
   "outputs": [],
   "source": []
  },
  {
   "cell_type": "code",
   "execution_count": null,
   "id": "advisory-shopping",
   "metadata": {},
   "outputs": [],
   "source": []
  },
  {
   "cell_type": "code",
   "execution_count": null,
   "id": "later-stress",
   "metadata": {},
   "outputs": [],
   "source": []
  },
  {
   "cell_type": "code",
   "execution_count": null,
   "id": "champion-thunder",
   "metadata": {},
   "outputs": [],
   "source": []
  },
  {
   "cell_type": "code",
   "execution_count": null,
   "id": "historical-judgment",
   "metadata": {},
   "outputs": [],
   "source": []
  },
  {
   "cell_type": "code",
   "execution_count": null,
   "id": "elegant-intensity",
   "metadata": {},
   "outputs": [],
   "source": []
  },
  {
   "cell_type": "code",
   "execution_count": null,
   "id": "collaborative-slave",
   "metadata": {},
   "outputs": [],
   "source": []
  },
  {
   "cell_type": "code",
   "execution_count": null,
   "id": "annual-plaintiff",
   "metadata": {},
   "outputs": [],
   "source": []
  },
  {
   "cell_type": "code",
   "execution_count": null,
   "id": "hungry-automation",
   "metadata": {},
   "outputs": [],
   "source": []
  },
  {
   "cell_type": "code",
   "execution_count": null,
   "id": "native-boards",
   "metadata": {},
   "outputs": [],
   "source": []
  },
  {
   "cell_type": "code",
   "execution_count": null,
   "id": "swiss-allocation",
   "metadata": {},
   "outputs": [],
   "source": []
  },
  {
   "cell_type": "code",
   "execution_count": null,
   "id": "diagnostic-navigation",
   "metadata": {},
   "outputs": [],
   "source": []
  },
  {
   "cell_type": "code",
   "execution_count": null,
   "id": "herbal-italic",
   "metadata": {},
   "outputs": [],
   "source": []
  },
  {
   "cell_type": "code",
   "execution_count": null,
   "id": "compact-cologne",
   "metadata": {},
   "outputs": [],
   "source": []
  },
  {
   "cell_type": "code",
   "execution_count": null,
   "id": "upper-prince",
   "metadata": {},
   "outputs": [],
   "source": []
  },
  {
   "cell_type": "code",
   "execution_count": null,
   "id": "supported-principle",
   "metadata": {},
   "outputs": [],
   "source": []
  },
  {
   "cell_type": "code",
   "execution_count": null,
   "id": "conventional-health",
   "metadata": {},
   "outputs": [],
   "source": []
  },
  {
   "cell_type": "code",
   "execution_count": null,
   "id": "worse-things",
   "metadata": {},
   "outputs": [],
   "source": []
  },
  {
   "cell_type": "code",
   "execution_count": null,
   "id": "genuine-repository",
   "metadata": {},
   "outputs": [],
   "source": []
  },
  {
   "cell_type": "code",
   "execution_count": null,
   "id": "natural-module",
   "metadata": {},
   "outputs": [],
   "source": []
  }
 ],
 "metadata": {
  "kernelspec": {
   "display_name": "Python 3",
   "language": "python",
   "name": "python3"
  },
  "language_info": {
   "codemirror_mode": {
    "name": "ipython",
    "version": 3
   },
   "file_extension": ".py",
   "mimetype": "text/x-python",
   "name": "python",
   "nbconvert_exporter": "python",
   "pygments_lexer": "ipython3",
   "version": "3.8.5"
  }
 },
 "nbformat": 4,
 "nbformat_minor": 5
}
